{
  "_format": "hh-sol-artifact-1",
  "contractName": "PolygonPoggersDomains",
  "sourceName": "contracts/Domains.sol",
  "abi": [
    {
      "inputs": [
        {
          "internalType": "string",
          "name": "_tld",
          "type": "string"
        },
        {
          "internalType": "uint256",
          "name": "_price",
          "type": "uint256"
        },
        {
          "internalType": "uint256",
          "name": "_domainMaxSize",
          "type": "uint256"
        },
        {
          "internalType": "uint256",
          "name": "_recordMaxSize",
          "type": "uint256"
        }
      ],
      "stateMutability": "payable",
      "type": "constructor"
    },
    {
      "inputs": [],
      "name": "AlreadyRegistered",
      "type": "error"
    },
    {
      "inputs": [],
      "name": "DomainWithEmptySpaces",
      "type": "error"
    },
    {
      "inputs": [
        {
          "internalType": "string",
          "name": "name",
          "type": "string"
        }
      ],
      "name": "InvalidName",
      "type": "error"
    },
    {
      "inputs": [],
      "name": "InvalidRecordSize",
      "type": "error"
    },
    {
      "inputs": [],
      "name": "NotMininumPriceValue",
      "type": "error"
    },
    {
      "inputs": [],
      "name": "Unauthorized",
      "type": "error"
    },
    {
      "anonymous": false,
      "inputs": [
        {
          "indexed": true,
          "internalType": "address",
          "name": "owner",
          "type": "address"
        },
        {
          "indexed": true,
          "internalType": "address",
          "name": "approved",
          "type": "address"
        },
        {
          "indexed": true,
          "internalType": "uint256",
          "name": "tokenId",
          "type": "uint256"
        }
      ],
      "name": "Approval",
      "type": "event"
    },
    {
      "anonymous": false,
      "inputs": [
        {
          "indexed": true,
          "internalType": "address",
          "name": "owner",
          "type": "address"
        },
        {
          "indexed": true,
          "internalType": "address",
          "name": "operator",
          "type": "address"
        },
        {
          "indexed": false,
          "internalType": "bool",
          "name": "approved",
          "type": "bool"
        }
      ],
      "name": "ApprovalForAll",
      "type": "event"
    },
    {
      "anonymous": false,
      "inputs": [
        {
          "indexed": true,
          "internalType": "address",
          "name": "previousOwner",
          "type": "address"
        },
        {
          "indexed": true,
          "internalType": "address",
          "name": "newOwner",
          "type": "address"
        }
      ],
      "name": "OwnershipTransferred",
      "type": "event"
    },
    {
      "anonymous": false,
      "inputs": [
        {
          "indexed": true,
          "internalType": "address",
          "name": "from",
          "type": "address"
        },
        {
          "indexed": true,
          "internalType": "address",
          "name": "to",
          "type": "address"
        },
        {
          "indexed": true,
          "internalType": "uint256",
          "name": "tokenId",
          "type": "uint256"
        }
      ],
      "name": "Transfer",
      "type": "event"
    },
    {
      "inputs": [
        {
          "internalType": "address",
          "name": "to",
          "type": "address"
        },
        {
          "internalType": "uint256",
          "name": "tokenId",
          "type": "uint256"
        }
      ],
      "name": "approve",
      "outputs": [],
      "stateMutability": "nonpayable",
      "type": "function"
    },
    {
      "inputs": [
        {
          "internalType": "address",
          "name": "owner",
          "type": "address"
        }
      ],
      "name": "balanceOf",
      "outputs": [
        {
          "internalType": "uint256",
          "name": "",
          "type": "uint256"
        }
      ],
      "stateMutability": "view",
      "type": "function"
    },
    {
      "inputs": [
        {
          "internalType": "string",
          "name": "_name",
          "type": "string"
        }
      ],
      "name": "checkDomainAvailability",
      "outputs": [
        {
          "internalType": "bool",
          "name": "",
          "type": "bool"
        }
      ],
      "stateMutability": "view",
      "type": "function"
    },
    {
      "inputs": [],
      "name": "domainMaxSize",
      "outputs": [
        {
          "internalType": "uint256",
          "name": "",
          "type": "uint256"
        }
      ],
      "stateMutability": "view",
      "type": "function"
    },
    {
      "inputs": [
        {
          "internalType": "string",
          "name": "",
          "type": "string"
        }
      ],
      "name": "domainToTokenID",
      "outputs": [
        {
          "internalType": "uint256",
          "name": "",
          "type": "uint256"
        }
      ],
      "stateMutability": "view",
      "type": "function"
    },
    {
      "inputs": [
        {
          "internalType": "string",
          "name": "",
          "type": "string"
        }
      ],
      "name": "domains",
      "outputs": [
        {
          "internalType": "address",
          "name": "",
          "type": "address"
        }
      ],
      "stateMutability": "view",
      "type": "function"
    },
    {
      "inputs": [
        {
          "internalType": "string",
          "name": "_name",
          "type": "string"
        }
      ],
      "name": "getAddress",
      "outputs": [
        {
          "internalType": "address",
          "name": "",
          "type": "address"
        }
      ],
      "stateMutability": "view",
      "type": "function"
    },
    {
      "inputs": [],
      "name": "getAllNames",
      "outputs": [
        {
          "components": [
            {
              "internalType": "string",
              "name": "name",
              "type": "string"
            },
            {
              "internalType": "string",
              "name": "record",
              "type": "string"
            },
            {
              "internalType": "address",
              "name": "owner",
              "type": "address"
            }
          ],
          "internalType": "struct PolygonPoggersDomains.Domain[]",
          "name": "",
          "type": "tuple[]"
        }
      ],
      "stateMutability": "view",
      "type": "function"
    },
    {
      "inputs": [
        {
          "internalType": "uint256",
          "name": "tokenId",
          "type": "uint256"
        }
      ],
      "name": "getApproved",
      "outputs": [
        {
          "internalType": "address",
          "name": "",
          "type": "address"
        }
      ],
      "stateMutability": "view",
      "type": "function"
    },
    {
      "inputs": [
        {
          "internalType": "string",
          "name": "_name",
          "type": "string"
        }
      ],
      "name": "getRecord",
      "outputs": [
        {
          "internalType": "string",
          "name": "",
          "type": "string"
        }
      ],
      "stateMutability": "view",
      "type": "function"
    },
    {
      "inputs": [
        {
          "internalType": "address",
          "name": "owner",
          "type": "address"
        },
        {
          "internalType": "address",
          "name": "operator",
          "type": "address"
        }
      ],
      "name": "isApprovedForAll",
      "outputs": [
        {
          "internalType": "bool",
          "name": "",
          "type": "bool"
        }
      ],
      "stateMutability": "view",
      "type": "function"
    },
    {
      "inputs": [],
      "name": "name",
      "outputs": [
        {
          "internalType": "string",
          "name": "",
          "type": "string"
        }
      ],
      "stateMutability": "view",
      "type": "function"
    },
    {
      "inputs": [],
      "name": "owner",
      "outputs": [
        {
          "internalType": "address",
          "name": "",
          "type": "address"
        }
      ],
      "stateMutability": "view",
      "type": "function"
    },
    {
      "inputs": [
        {
          "internalType": "uint256",
          "name": "tokenId",
          "type": "uint256"
        }
      ],
      "name": "ownerOf",
      "outputs": [
        {
          "internalType": "address",
          "name": "",
          "type": "address"
        }
      ],
      "stateMutability": "view",
      "type": "function"
    },
    {
      "inputs": [],
      "name": "price",
      "outputs": [
        {
          "internalType": "uint256",
          "name": "",
          "type": "uint256"
        }
      ],
      "stateMutability": "view",
      "type": "function"
    },
    {
      "inputs": [],
      "name": "recordMaxSize",
      "outputs": [
        {
          "internalType": "uint256",
          "name": "",
          "type": "uint256"
        }
      ],
      "stateMutability": "view",
      "type": "function"
    },
    {
      "inputs": [
        {
          "internalType": "string",
          "name": "",
          "type": "string"
        }
      ],
      "name": "records",
      "outputs": [
        {
          "internalType": "string",
          "name": "",
          "type": "string"
        }
      ],
      "stateMutability": "view",
      "type": "function"
    },
    {
      "inputs": [
        {
          "internalType": "string",
          "name": "_name",
          "type": "string"
        }
      ],
      "name": "register",
      "outputs": [],
      "stateMutability": "payable",
      "type": "function"
    },
    {
      "inputs": [
        {
          "internalType": "string",
          "name": "_name",
          "type": "string"
        },
        {
          "internalType": "string",
          "name": "_record",
          "type": "string"
        }
      ],
      "name": "registerWithRecord",
      "outputs": [],
      "stateMutability": "payable",
      "type": "function"
    },
    {
      "inputs": [],
      "name": "renounceOwnership",
      "outputs": [],
      "stateMutability": "nonpayable",
      "type": "function"
    },
    {
      "inputs": [
        {
          "internalType": "address",
          "name": "from",
          "type": "address"
        },
        {
          "internalType": "address",
          "name": "to",
          "type": "address"
        },
        {
          "internalType": "uint256",
          "name": "tokenId",
          "type": "uint256"
        }
      ],
      "name": "safeTransferFrom",
      "outputs": [],
      "stateMutability": "nonpayable",
      "type": "function"
    },
    {
      "inputs": [
        {
          "internalType": "address",
          "name": "from",
          "type": "address"
        },
        {
          "internalType": "address",
          "name": "to",
          "type": "address"
        },
        {
          "internalType": "uint256",
          "name": "tokenId",
          "type": "uint256"
        },
        {
          "internalType": "bytes",
          "name": "data",
          "type": "bytes"
        }
      ],
      "name": "safeTransferFrom",
      "outputs": [],
      "stateMutability": "nonpayable",
      "type": "function"
    },
    {
      "inputs": [
        {
          "internalType": "address",
          "name": "operator",
          "type": "address"
        },
        {
          "internalType": "bool",
          "name": "approved",
          "type": "bool"
        }
      ],
      "name": "setApprovalForAll",
      "outputs": [],
      "stateMutability": "nonpayable",
      "type": "function"
    },
    {
      "inputs": [
        {
          "internalType": "uint256",
          "name": "_domainMaxSize",
          "type": "uint256"
        }
      ],
      "name": "setDomainMaxSize",
      "outputs": [],
      "stateMutability": "nonpayable",
      "type": "function"
    },
    {
      "inputs": [
        {
          "internalType": "uint256",
          "name": "_price",
          "type": "uint256"
        }
      ],
      "name": "setPrice",
      "outputs": [],
      "stateMutability": "nonpayable",
      "type": "function"
    },
    {
      "inputs": [
        {
          "internalType": "string",
          "name": "_name",
          "type": "string"
        },
        {
          "internalType": "string",
          "name": "_record",
          "type": "string"
        }
      ],
      "name": "setRecord",
      "outputs": [],
      "stateMutability": "nonpayable",
      "type": "function"
    },
    {
      "inputs": [
        {
          "internalType": "uint256",
          "name": "_recordMaxSize",
          "type": "uint256"
        }
      ],
      "name": "setRecordMaxSize",
      "outputs": [],
      "stateMutability": "nonpayable",
      "type": "function"
    },
    {
      "inputs": [
        {
          "internalType": "bytes4",
          "name": "interfaceId",
          "type": "bytes4"
        }
      ],
      "name": "supportsInterface",
      "outputs": [
        {
          "internalType": "bool",
          "name": "",
          "type": "bool"
        }
      ],
      "stateMutability": "view",
      "type": "function"
    },
    {
      "inputs": [],
      "name": "symbol",
      "outputs": [
        {
          "internalType": "string",
          "name": "",
          "type": "string"
        }
      ],
      "stateMutability": "view",
      "type": "function"
    },
    {
      "inputs": [],
      "name": "tld",
      "outputs": [
        {
          "internalType": "string",
          "name": "",
          "type": "string"
        }
      ],
      "stateMutability": "view",
      "type": "function"
    },
    {
      "inputs": [
        {
          "internalType": "uint256",
          "name": "",
          "type": "uint256"
        }
      ],
      "name": "tokenIDToDomain",
      "outputs": [
        {
          "internalType": "string",
          "name": "",
          "type": "string"
        }
      ],
      "stateMutability": "view",
      "type": "function"
    },
    {
      "inputs": [
        {
          "internalType": "uint256",
          "name": "tokenId",
          "type": "uint256"
        }
      ],
      "name": "tokenURI",
      "outputs": [
        {
          "internalType": "string",
          "name": "",
          "type": "string"
        }
      ],
      "stateMutability": "view",
      "type": "function"
    },
    {
      "inputs": [
        {
          "internalType": "address",
          "name": "from",
          "type": "address"
        },
        {
          "internalType": "address",
          "name": "to",
          "type": "address"
        },
        {
          "internalType": "uint256",
          "name": "tokenId",
          "type": "uint256"
        }
      ],
      "name": "transferFrom",
      "outputs": [],
      "stateMutability": "nonpayable",
      "type": "function"
    },
    {
      "inputs": [
        {
          "internalType": "address",
          "name": "newOwner",
          "type": "address"
        }
      ],
      "name": "transferOwnership",
      "outputs": [],
      "stateMutability": "nonpayable",
      "type": "function"
    },
    {
      "inputs": [
        {
          "internalType": "string",
          "name": "_name",
          "type": "string"
        }
      ],
      "name": "validDomainSize",
      "outputs": [
        {
          "internalType": "bool",
          "name": "",
          "type": "bool"
        }
      ],
      "stateMutability": "view",
      "type": "function"
    },
    {
      "inputs": [
        {
          "internalType": "string",
          "name": "_record",
          "type": "string"
        }
      ],
      "name": "validRecordSize",
      "outputs": [
        {
          "internalType": "bool",
          "name": "",
          "type": "bool"
        }
      ],
      "stateMutability": "view",
      "type": "function"
    },
    {
      "inputs": [],
      "name": "withdraw",
      "outputs": [],
      "stateMutability": "nonpayable",
      "type": "function"
    }
  ],
  "bytecode": "0x608060405260405180610860016040528061083081526020016200557b6108309139600d90805190602001906200003892919062000272565b506040518060400160405280600d81526020017f3c2f746578743e3c2f7376673e00000000000000000000000000000000000000815250600e90805190602001906200008692919062000272565b5060405162005dab38038062005dab8339818101604052810190620000ac9190620004fa565b6040518060400160405280601b81526020017f506f6c79676f6e20446f6d61696e2053657276696365205465737400000000008152506040518060400160405280600481526020017f504453540000000000000000000000000000000000000000000000000000000081525081600090805190602001906200013092919062000272565b5080600190805190602001906200014992919062000272565b5050506200016c62000160620001a460201b60201c565b620001ac60201b60201c565b83600990805190602001906200018492919062000272565b5082600a8190555081600b8190555080600c8190555050505050620005f0565b600033905090565b6000600760009054906101000a900473ffffffffffffffffffffffffffffffffffffffff16905081600760006101000a81548173ffffffffffffffffffffffffffffffffffffffff021916908373ffffffffffffffffffffffffffffffffffffffff1602179055508173ffffffffffffffffffffffffffffffffffffffff168173ffffffffffffffffffffffffffffffffffffffff167f8be0079c531659141344cd1fd0a4f28419497f9722a3daafe3b4186f6b6457e060405160405180910390a35050565b8280546200028090620005ba565b90600052602060002090601f016020900481019282620002a45760008555620002f0565b82601f10620002bf57805160ff1916838001178555620002f0565b82800160010185558215620002f0579182015b82811115620002ef578251825591602001919060010190620002d2565b5b509050620002ff919062000303565b5090565b5b808211156200031e57600081600090555060010162000304565b5090565b6000604051905090565b600080fd5b600080fd5b600080fd5b600080fd5b6000601f19601f8301169050919050565b7f4e487b7100000000000000000000000000000000000000000000000000000000600052604160045260246000fd5b6200038b8262000340565b810181811067ffffffffffffffff82111715620003ad57620003ac62000351565b5b80604052505050565b6000620003c262000322565b9050620003d0828262000380565b919050565b600067ffffffffffffffff821115620003f357620003f262000351565b5b620003fe8262000340565b9050602081019050919050565b60005b838110156200042b5780820151818401526020810190506200040e565b838111156200043b576000848401525b50505050565b6000620004586200045284620003d5565b620003b6565b9050828152602081018484840111156200047757620004766200033b565b5b620004848482856200040b565b509392505050565b600082601f830112620004a457620004a362000336565b5b8151620004b684826020860162000441565b91505092915050565b6000819050919050565b620004d481620004bf565b8114620004e057600080fd5b50565b600081519050620004f481620004c9565b92915050565b600080600080608085870312156200051757620005166200032c565b5b600085015167ffffffffffffffff81111562000538576200053762000331565b5b62000546878288016200048c565b94505060206200055987828801620004e3565b93505060406200056c87828801620004e3565b92505060606200057f87828801620004e3565b91505092959194509250565b7f4e487b7100000000000000000000000000000000000000000000000000000000600052602260045260246000fd5b60006002820490506001821680620005d357607f821691505b60208210811415620005ea57620005e96200058b565b5b50919050565b614f7b80620006006000396000f3fe60806040526004361061021a5760003560e01c806370a0823111610123578063a22cb465116100ab578063e985e9c51161006f578063e985e9c514610834578063f2c298be14610871578063f2fde38b1461088d578063f6fb337c146108b6578063fb825e5f146108df5761021a565b8063a22cb4651461073f578063b88d4fde14610768578063bf40fac114610791578063c1880a98146107ce578063c87b56dd146107f75761021a565b80638da5cb5b116100f25780638da5cb5b1461065857806391b7f5ed1461068357806395d89b41146106ac5780639d358afb146106d7578063a035b1fe146107145761021a565b806370a08231146105b0578063715018a6146105ed578063722e4435146106045780638c225e9d1461062f5761021a565b80632d551432116101a65780634ffb9dd1116101755780634ffb9dd114610491578063541e771d146104ce57806356ec76521461050b57806362228421146105365780636352211e146105735761021a565b80632d551432146103e95780633b496497146104145780633ccfd60b1461045157806342842e0e146104685761021a565b80630cd2744d116101ed5780630cd2744d146102ed5780630f9173db1461032a57806311dd88451461034657806323b872dd1461038357806326449235146103ac5761021a565b806301ffc9a71461021f57806306fdde031461025c578063081812fc14610287578063095ea7b3146102c4575b600080fd5b34801561022b57600080fd5b506102466004803603810190610241919061351f565b61090a565b6040516102539190613567565b60405180910390f35b34801561026857600080fd5b506102716109ec565b60405161027e919061361b565b60405180910390f35b34801561029357600080fd5b506102ae60048036038101906102a99190613673565b610a7e565b6040516102bb91906136e1565b60405180910390f35b3480156102d057600080fd5b506102eb60048036038101906102e69190613728565b610ac4565b005b3480156102f957600080fd5b50610314600480360381019061030f919061389d565b610bdc565b60405161032191906138f5565b60405180910390f35b610344600480360381019061033f9190613910565b610c0a565b005b34801561035257600080fd5b5061036d6004803603810190610368919061389d565b610ece565b60405161037a919061361b565b60405180910390f35b34801561038f57600080fd5b506103aa60048036038101906103a59190613988565b610f7e565b005b3480156103b857600080fd5b506103d360048036038101906103ce919061389d565b610fde565b6040516103e091906136e1565b60405180910390f35b3480156103f557600080fd5b506103fe611027565b60405161040b919061361b565b60405180910390f35b34801561042057600080fd5b5061043b6004803603810190610436919061389d565b6110b5565b6040516104489190613567565b60405180910390f35b34801561045d57600080fd5b5061046661112d565b005b34801561047457600080fd5b5061048f600480360381019061048a9190613988565b6111ea565b005b34801561049d57600080fd5b506104b860048036038101906104b39190613673565b61120a565b6040516104c5919061361b565b60405180910390f35b3480156104da57600080fd5b506104f560048036038101906104f0919061389d565b6112aa565b604051610502919061361b565b60405180910390f35b34801561051757600080fd5b50610520611360565b60405161052d91906138f5565b60405180910390f35b34801561054257600080fd5b5061055d6004803603810190610558919061389d565b611366565b60405161056a9190613567565b60405180910390f35b34801561057f57600080fd5b5061059a60048036038101906105959190613673565b611391565b6040516105a791906136e1565b60405180910390f35b3480156105bc57600080fd5b506105d760048036038101906105d291906139db565b611443565b6040516105e491906138f5565b60405180910390f35b3480156105f957600080fd5b506106026114fb565b005b34801561061057600080fd5b5061061961150f565b60405161062691906138f5565b60405180910390f35b34801561063b57600080fd5b5061065660048036038101906106519190613673565b611515565b005b34801561066457600080fd5b5061066d611527565b60405161067a91906136e1565b60405180910390f35b34801561068f57600080fd5b506106aa60048036038101906106a59190613673565b611551565b005b3480156106b857600080fd5b506106c1611563565b6040516106ce919061361b565b60405180910390f35b3480156106e357600080fd5b506106fe60048036038101906106f9919061389d565b6115f5565b60405161070b9190613567565b60405180910390f35b34801561072057600080fd5b50610729611620565b60405161073691906138f5565b60405180910390f35b34801561074b57600080fd5b5061076660048036038101906107619190613a34565b611626565b005b34801561077457600080fd5b5061078f600480360381019061078a9190613b15565b61163c565b005b34801561079d57600080fd5b506107b860048036038101906107b3919061389d565b61169e565b6040516107c591906136e1565b60405180910390f35b3480156107da57600080fd5b506107f560048036038101906107f09190613910565b6116e6565b005b34801561080357600080fd5b5061081e60048036038101906108199190613673565b61183c565b60405161082b919061361b565b60405180910390f35b34801561084057600080fd5b5061085b60048036038101906108569190613b98565b61194f565b6040516108689190613567565b60405180910390f35b61088b6004803603810190610886919061389d565b6119e3565b005b34801561089957600080fd5b506108b460048036038101906108af91906139db565b611c33565b005b3480156108c257600080fd5b506108dd60048036038101906108d89190613673565b611cb7565b005b3480156108eb57600080fd5b506108f4611cc9565b6040516109019190613d4a565b60405180910390f35b60007f80ac58cd000000000000000000000000000000000000000000000000000000007bffffffffffffffffffffffffffffffffffffffffffffffffffffffff1916827bffffffffffffffffffffffffffffffffffffffffffffffffffffffff191614806109d557507f5b5e139f000000000000000000000000000000000000000000000000000000007bffffffffffffffffffffffffffffffffffffffffffffffffffffffff1916827bffffffffffffffffffffffffffffffffffffffffffffffffffffffff1916145b806109e557506109e482611f41565b5b9050919050565b6060600080546109fb90613d9b565b80601f0160208091040260200160405190810160405280929190818152602001828054610a2790613d9b565b8015610a745780601f10610a4957610100808354040283529160200191610a74565b820191906000526020600020905b815481529060010190602001808311610a5757829003601f168201915b5050505050905090565b6000610a8982611fab565b6004600083815260200190815260200160002060009054906101000a900473ffffffffffffffffffffffffffffffffffffffff169050919050565b6000610acf82611391565b90508073ffffffffffffffffffffffffffffffffffffffff168373ffffffffffffffffffffffffffffffffffffffff161415610b40576040517f08c379a0000000000000000000000000000000000000000000000000000000008152600401610b3790613e3f565b60405180910390fd5b8073ffffffffffffffffffffffffffffffffffffffff16610b5f611ff6565b73ffffffffffffffffffffffffffffffffffffffff161480610b8e5750610b8d81610b88611ff6565b61194f565b5b610bcd576040517f08c379a0000000000000000000000000000000000000000000000000000000008152600401610bc490613ed1565b60405180910390fd5b610bd78383611ffe565b505050565b6011818051602081018201805184825260208301602085012081835280955050505050506000915090505481565b610c13826120b7565b15610c4a576040517f2e28d82500000000000000000000000000000000000000000000000000000000815260040160405180910390fd5b600073ffffffffffffffffffffffffffffffffffffffff16600f83604051610c729190613f2d565b908152602001604051809103902060009054906101000a900473ffffffffffffffffffffffffffffffffffffffff1673ffffffffffffffffffffffffffffffffffffffff1614610cee576040517f3a81d6fc00000000000000000000000000000000000000000000000000000000815260040160405180910390fd5b600a54341015610d2a576040517f18b5e46100000000000000000000000000000000000000000000000000000000815260040160405180910390fd5b610d3382611366565b610d7457816040517f7f19f48d000000000000000000000000000000000000000000000000000000008152600401610d6b919061361b565b60405180910390fd5b610d7d816115f5565b610db3576040517f4da688fa00000000000000000000000000000000000000000000000000000000815260040160405180910390fd5b6000610dbf6008612146565b90506000610dcd8484612154565b9050610dd93383612212565b610de38282612230565b33600f85604051610df49190613f2d565b908152602001604051809103902060006101000a81548173ffffffffffffffffffffffffffffffffffffffff021916908373ffffffffffffffffffffffffffffffffffffffff16021790555082601085604051610e519190613f2d565b90815260200160405180910390209080519060200190610e729291906133d9565b5081601185604051610e849190613f2d565b90815260200160405180910390208190555083601260008481526020019081526020016000209080519060200190610ebd9291906133d9565b50610ec860086122a4565b50505050565b6060601082604051610ee09190613f2d565b90815260200160405180910390208054610ef990613d9b565b80601f0160208091040260200160405190810160405280929190818152602001828054610f2590613d9b565b8015610f725780601f10610f4757610100808354040283529160200191610f72565b820191906000526020600020905b815481529060010190602001808311610f5557829003601f168201915b50505050509050919050565b610f8f610f89611ff6565b826122ba565b610fce576040517f08c379a0000000000000000000000000000000000000000000000000000000008152600401610fc590613fb6565b60405180910390fd5b610fd983838361234f565b505050565b600f818051602081018201805184825260208301602085012081835280955050505050506000915054906101000a900473ffffffffffffffffffffffffffffffffffffffff1681565b6009805461103490613d9b565b80601f016020809104026020016040519081016040528092919081815260200182805461106090613d9b565b80156110ad5780601f10611082576101008083540402835291602001916110ad565b820191906000526020600020905b81548152906001019060200180831161109057829003601f168201915b505050505081565b60008073ffffffffffffffffffffffffffffffffffffffff16600f836040516110de9190613f2d565b908152602001604051809103902060009054906101000a900473ffffffffffffffffffffffffffffffffffffffff1673ffffffffffffffffffffffffffffffffffffffff161415159050919050565b61113561245d565b600047905060003373ffffffffffffffffffffffffffffffffffffffff168260405161116090614007565b60006040518083038185875af1925050503d806000811461119d576040519150601f19603f3d011682016040523d82523d6000602084013e6111a2565b606091505b50509050806111e6576040517f08c379a00000000000000000000000000000000000000000000000000000000081526004016111dd90614068565b60405180910390fd5b5050565b6112058383836040518060200160405280600081525061163c565b505050565b6012602052806000526040600020600091509050805461122990613d9b565b80601f016020809104026020016040519081016040528092919081815260200182805461125590613d9b565b80156112a25780601f10611277576101008083540402835291602001916112a2565b820191906000526020600020905b81548152906001019060200180831161128557829003601f168201915b505050505081565b60108180516020810182018051848252602083016020850120818352809550505050505060009150905080546112df90613d9b565b80601f016020809104026020016040519081016040528092919081815260200182805461130b90613d9b565b80156113585780601f1061132d57610100808354040283529160200191611358565b820191906000526020600020905b81548152906001019060200180831161133b57829003601f168201915b505050505081565b600c5481565b6000600b54611374836124db565b1115801561138a57506000611388836124db565b115b9050919050565b6000806002600084815260200190815260200160002060009054906101000a900473ffffffffffffffffffffffffffffffffffffffff169050600073ffffffffffffffffffffffffffffffffffffffff168173ffffffffffffffffffffffffffffffffffffffff16141561143a576040517f08c379a0000000000000000000000000000000000000000000000000000000008152600401611431906140d4565b60405180910390fd5b80915050919050565b60008073ffffffffffffffffffffffffffffffffffffffff168273ffffffffffffffffffffffffffffffffffffffff1614156114b4576040517f08c379a00000000000000000000000000000000000000000000000000000000081526004016114ab90614166565b60405180910390fd5b600360008373ffffffffffffffffffffffffffffffffffffffff1673ffffffffffffffffffffffffffffffffffffffff168152602001908152602001600020549050919050565b61150361245d565b61150d6000612690565b565b600b5481565b61151d61245d565b80600b8190555050565b6000600760009054906101000a900473ffffffffffffffffffffffffffffffffffffffff16905090565b61155961245d565b80600a8190555050565b60606001805461157290613d9b565b80601f016020809104026020016040519081016040528092919081815260200182805461159e90613d9b565b80156115eb5780601f106115c0576101008083540402835291602001916115eb565b820191906000526020600020905b8154815290600101906020018083116115ce57829003601f168201915b5050505050905090565b6000600c54611603836124db565b1115801561161957506000611617836124db565b115b9050919050565b600a5481565b611638611631611ff6565b8383612756565b5050565b61164d611647611ff6565b836122ba565b61168c576040517f08c379a000000000000000000000000000000000000000000000000000000000815260040161168390613fb6565b60405180910390fd5b611698848484846128c3565b50505050565b6000600f826040516116b09190613f2d565b908152602001604051809103902060009054906101000a900473ffffffffffffffffffffffffffffffffffffffff169050919050565b3373ffffffffffffffffffffffffffffffffffffffff16600f8360405161170d9190613f2d565b908152602001604051809103902060009054906101000a900473ffffffffffffffffffffffffffffffffffffffff1673ffffffffffffffffffffffffffffffffffffffff1614611789576040517f82b4290000000000000000000000000000000000000000000000000000000000815260040160405180910390fd5b611792816115f5565b6117c8576040517f4da688fa00000000000000000000000000000000000000000000000000000000815260040160405180910390fd5b60006011836040516117da9190613f2d565b9081526020016040518091039020549050816010846040516117fc9190613f2d565b9081526020016040518091039020908051906020019061181d9291906133d9565b50600061182a8484612154565b90506118368282612230565b50505050565b606061184782611fab565b600060066000848152602001908152602001600020805461186790613d9b565b80601f016020809104026020016040519081016040528092919081815260200182805461189390613d9b565b80156118e05780601f106118b5576101008083540402835291602001916118e0565b820191906000526020600020905b8154815290600101906020018083116118c357829003601f168201915b5050505050905060006118f161291f565b905060008151141561190757819250505061194a565b60008251111561193c578082604051602001611924929190614186565b6040516020818303038152906040529250505061194a565b61194584612936565b925050505b919050565b6000600560008473ffffffffffffffffffffffffffffffffffffffff1673ffffffffffffffffffffffffffffffffffffffff16815260200190815260200160002060008373ffffffffffffffffffffffffffffffffffffffff1673ffffffffffffffffffffffffffffffffffffffff16815260200190815260200160002060009054906101000a900460ff16905092915050565b6119ec816120b7565b15611a23576040517f2e28d82500000000000000000000000000000000000000000000000000000000815260040160405180910390fd5b600073ffffffffffffffffffffffffffffffffffffffff16600f82604051611a4b9190613f2d565b908152602001604051809103902060009054906101000a900473ffffffffffffffffffffffffffffffffffffffff1673ffffffffffffffffffffffffffffffffffffffff1614611ac7576040517f3a81d6fc00000000000000000000000000000000000000000000000000000000815260040160405180910390fd5b600a54341015611b03576040517f18b5e46100000000000000000000000000000000000000000000000000000000815260040160405180910390fd5b611b0c81611366565b611b4d57806040517f7f19f48d000000000000000000000000000000000000000000000000000000008152600401611b44919061361b565b60405180910390fd5b6000611b596008612146565b90506000611b668361299e565b9050611b723383612212565b611b7c8282612230565b33600f84604051611b8d9190613f2d565b908152602001604051809103902060006101000a81548173ffffffffffffffffffffffffffffffffffffffff021916908373ffffffffffffffffffffffffffffffffffffffff16021790555081601184604051611bea9190613f2d565b90815260200160405180910390208190555082601260008481526020019081526020016000209080519060200190611c239291906133d9565b50611c2e60086122a4565b505050565b611c3b61245d565b600073ffffffffffffffffffffffffffffffffffffffff168173ffffffffffffffffffffffffffffffffffffffff161415611cab576040517f08c379a0000000000000000000000000000000000000000000000000000000008152600401611ca29061421c565b60405180910390fd5b611cb481612690565b50565b611cbf61245d565b80600c8190555050565b60606000611cd76008612146565b67ffffffffffffffff811115611cf057611cef613772565b5b604051908082528060200260200182016040528015611d2957816020015b611d1661345f565b815260200190600190039081611d0e5790505b50905060005b611d396008612146565b811015611f39576000601260008381526020019081526020016000208054611d6090613d9b565b80601f0160208091040260200160405190810160405280929190818152602001828054611d8c90613d9b565b8015611dd95780601f10611dae57610100808354040283529160200191611dd9565b820191906000526020600020905b815481529060010190602001808311611dbc57829003601f168201915b505050505090506000601082604051611df29190613f2d565b90815260200160405180910390208054611e0b90613d9b565b80601f0160208091040260200160405190810160405280929190818152602001828054611e3790613d9b565b8015611e845780601f10611e5957610100808354040283529160200191611e84565b820191906000526020600020905b815481529060010190602001808311611e6757829003601f168201915b505050505090506000600f83604051611e9d9190613f2d565b908152602001604051809103902060009054906101000a900473ffffffffffffffffffffffffffffffffffffffff169050600060405180606001604052808581526020018481526020018373ffffffffffffffffffffffffffffffffffffffff16815250905080868681518110611f1757611f1661423c565b5b6020026020010181905250505050508080611f319061429a565b915050611d2f565b508091505090565b60007f01ffc9a7000000000000000000000000000000000000000000000000000000007bffffffffffffffffffffffffffffffffffffffffffffffffffffffff1916827bffffffffffffffffffffffffffffffffffffffffffffffffffffffff1916149050919050565b611fb481612a57565b611ff3576040517f08c379a0000000000000000000000000000000000000000000000000000000008152600401611fea906140d4565b60405180910390fd5b50565b600033905090565b816004600083815260200190815260200160002060006101000a81548173ffffffffffffffffffffffffffffffffffffffff021916908373ffffffffffffffffffffffffffffffffffffffff160217905550808273ffffffffffffffffffffffffffffffffffffffff1661207183611391565b73ffffffffffffffffffffffffffffffffffffffff167f8c5be1e5ebec7d5bd14f71427d1e84f3dd0314c0f7b2291e5b200ac8c7c3b92560405160405180910390a45050565b60008060009050600083519050600091505b8082101561213a57602060f81b8483815181106120e9576120e861423c565b5b602001015160f81c60f81b7effffffffffffffffffffffffffffffffffffffffffffffffffffffffffffff1916141561212757600192505050612141565b81806121329061429a565b9250506120c9565b6000925050505b919050565b600081600001549050919050565b6060600083600960405160200161216c9291906143c3565b60405160208183030381529060405290506000600d82600e604051602001612196939291906143f2565b604051602081830303815290604052905060006121df836121b684612ac3565b87886040516020016121cb9493929190614637565b604051602081830303815290604052612ac3565b90506000816040516020016121f491906146f8565b60405160208183030381529060405290508094505050505092915050565b61222c828260405180602001604052806000815250612c27565b5050565b61223982612a57565b612278576040517f08c379a000000000000000000000000000000000000000000000000000000000815260040161226f9061478c565b60405180910390fd5b8060066000848152602001908152602001600020908051906020019061229f9291906133d9565b505050565b6001816000016000828254019250508190555050565b6000806122c683611391565b90508073ffffffffffffffffffffffffffffffffffffffff168473ffffffffffffffffffffffffffffffffffffffff1614806123085750612307818561194f565b5b8061234657508373ffffffffffffffffffffffffffffffffffffffff1661232e84610a7e565b73ffffffffffffffffffffffffffffffffffffffff16145b91505092915050565b600060126000838152602001908152602001600020805461236f90613d9b565b80601f016020809104026020016040519081016040528092919081815260200182805461239b90613d9b565b80156123e85780601f106123bd576101008083540402835291602001916123e8565b820191906000526020600020905b8154815290600101906020018083116123cb57829003601f168201915b5050505050905082600f826040516124009190613f2d565b908152602001604051809103902060006101000a81548173ffffffffffffffffffffffffffffffffffffffff021916908373ffffffffffffffffffffffffffffffffffffffff160217905550612457848484612c82565b50505050565b612465611ff6565b73ffffffffffffffffffffffffffffffffffffffff16612483611527565b73ffffffffffffffffffffffffffffffffffffffff16146124d9576040517f08c379a00000000000000000000000000000000000000000000000000000000081526004016124d0906147f8565b60405180910390fd5b565b60008060008084519050600092505b808210156126855760008583815181106125075761250661423c565b5b602001015160f81c60f81b9050608060f81b817effffffffffffffffffffffffffffffffffffffffffffffffffffffffffffff191610156125565760018361254f9190614818565b9250612671565b60e060f81b817effffffffffffffffffffffffffffffffffffffffffffffffffffffffffffff19161015612598576002836125919190614818565b9250612670565b60f060f81b817effffffffffffffffffffffffffffffffffffffffffffffffffffffffffffff191610156125da576003836125d39190614818565b925061266f565b60f8801b817effffffffffffffffffffffffffffffffffffffffffffffffffffffffffffff1916101561261b576004836126149190614818565b925061266e565b60fc60f81b817effffffffffffffffffffffffffffffffffffffffffffffffffffffffffffff1916101561265d576005836126569190614818565b925061266d565b60068361266a9190614818565b92505b5b5b5b5b50828061267d9061429a565b9350506124ea565b829350505050919050565b6000600760009054906101000a900473ffffffffffffffffffffffffffffffffffffffff16905081600760006101000a81548173ffffffffffffffffffffffffffffffffffffffff021916908373ffffffffffffffffffffffffffffffffffffffff1602179055508173ffffffffffffffffffffffffffffffffffffffff168173ffffffffffffffffffffffffffffffffffffffff167f8be0079c531659141344cd1fd0a4f28419497f9722a3daafe3b4186f6b6457e060405160405180910390a35050565b8173ffffffffffffffffffffffffffffffffffffffff168373ffffffffffffffffffffffffffffffffffffffff1614156127c5576040517f08c379a00000000000000000000000000000000000000000000000000000000081526004016127bc906148ba565b60405180910390fd5b80600560008573ffffffffffffffffffffffffffffffffffffffff1673ffffffffffffffffffffffffffffffffffffffff16815260200190815260200160002060008473ffffffffffffffffffffffffffffffffffffffff1673ffffffffffffffffffffffffffffffffffffffff16815260200190815260200160002060006101000a81548160ff0219169083151502179055508173ffffffffffffffffffffffffffffffffffffffff168373ffffffffffffffffffffffffffffffffffffffff167f17307eab39ab6107e8899845ad3d59bd9653f200f220920489ca2b5937696c31836040516128b69190613567565b60405180910390a3505050565b6128ce84848461234f565b6128da84848484612ee9565b612919576040517f08c379a00000000000000000000000000000000000000000000000000000000081526004016129109061494c565b60405180910390fd5b50505050565b606060405180602001604052806000815250905090565b606061294182611fab565b600061294b61291f565b9050600081511161296b5760405180602001604052806000815250612996565b8061297584613071565b604051602001612986929190614186565b6040516020818303038152906040525b915050919050565b606060008260096040516020016129b69291906143c3565b60405160208183030381529060405290506000600d82600e6040516020016129e0939291906143f2565b60405160208183030381529060405290506000612a2583612a0084612ac3565b604051602001612a11929190614ac2565b604051602081830303815290604052612ac3565b9050600081604051602001612a3a91906146f8565b604051602081830303815290604052905080945050505050919050565b60008073ffffffffffffffffffffffffffffffffffffffff166002600084815260200190815260200160002060009054906101000a900473ffffffffffffffffffffffffffffffffffffffff1673ffffffffffffffffffffffffffffffffffffffff1614159050919050565b6060600082511415612ae657604051806020016040528060008152509050612c22565b6000604051806060016040528060408152602001614f066040913990506000600360028551612b159190614818565b612b1f9190614b36565b6004612b2b9190614b67565b67ffffffffffffffff811115612b4457612b43613772565b5b6040519080825280601f01601f191660200182016040528015612b765781602001600182028036833780820191505090505b509050600182016020820185865187015b80821015612be2576003820191508151603f8160121c168501518453600184019350603f81600c1c168501518453600184019350603f8160061c168501518453600184019350603f8116850151845360018401935050612b87565b5050600386510660018114612bfe5760028114612c1157612c19565b603d6001830353603d6002830353612c19565b603d60018303535b50505080925050505b919050565b612c3183836131d2565b612c3e6000848484612ee9565b612c7d576040517f08c379a0000000000000000000000000000000000000000000000000000000008152600401612c749061494c565b60405180910390fd5b505050565b8273ffffffffffffffffffffffffffffffffffffffff16612ca282611391565b73ffffffffffffffffffffffffffffffffffffffff1614612cf8576040517f08c379a0000000000000000000000000000000000000000000000000000000008152600401612cef90614c33565b60405180910390fd5b600073ffffffffffffffffffffffffffffffffffffffff168273ffffffffffffffffffffffffffffffffffffffff161415612d68576040517f08c379a0000000000000000000000000000000000000000000000000000000008152600401612d5f90614cc5565b60405180910390fd5b612d738383836133ac565b612d7e600082611ffe565b6001600360008573ffffffffffffffffffffffffffffffffffffffff1673ffffffffffffffffffffffffffffffffffffffff1681526020019081526020016000206000828254612dce9190614ce5565b925050819055506001600360008473ffffffffffffffffffffffffffffffffffffffff1673ffffffffffffffffffffffffffffffffffffffff1681526020019081526020016000206000828254612e259190614818565b92505081905550816002600083815260200190815260200160002060006101000a81548173ffffffffffffffffffffffffffffffffffffffff021916908373ffffffffffffffffffffffffffffffffffffffff160217905550808273ffffffffffffffffffffffffffffffffffffffff168473ffffffffffffffffffffffffffffffffffffffff167fddf252ad1be2c89b69c2b068fc378daa952ba7f163c4a11628f55a4df523b3ef60405160405180910390a4612ee48383836133b1565b505050565b6000612f0a8473ffffffffffffffffffffffffffffffffffffffff166133b6565b15613064578373ffffffffffffffffffffffffffffffffffffffff1663150b7a02612f33611ff6565b8786866040518563ffffffff1660e01b8152600401612f559493929190614d6e565b6020604051808303816000875af1925050508015612f9157506040513d601f19601f82011682018060405250810190612f8e9190614dcf565b60015b613014573d8060008114612fc1576040519150601f19603f3d011682016040523d82523d6000602084013e612fc6565b606091505b5060008151141561300c576040517f08c379a00000000000000000000000000000000000000000000000000000000081526004016130039061494c565b60405180910390fd5b805181602001fd5b63150b7a0260e01b7bffffffffffffffffffffffffffffffffffffffffffffffffffffffff1916817bffffffffffffffffffffffffffffffffffffffffffffffffffffffff191614915050613069565b600190505b949350505050565b606060008214156130b9576040518060400160405280600181526020017f300000000000000000000000000000000000000000000000000000000000000081525090506131cd565b600082905060005b600082146130eb5780806130d49061429a565b915050600a826130e49190614b36565b91506130c1565b60008167ffffffffffffffff81111561310757613106613772565b5b6040519080825280601f01601f1916602001820160405280156131395781602001600182028036833780820191505090505b5090505b600085146131c6576001826131529190614ce5565b9150600a856131619190614dfc565b603061316d9190614818565b60f81b8183815181106131835761318261423c565b5b60200101907effffffffffffffffffffffffffffffffffffffffffffffffffffffffffffff1916908160001a905350600a856131bf9190614b36565b945061313d565b8093505050505b919050565b600073ffffffffffffffffffffffffffffffffffffffff168273ffffffffffffffffffffffffffffffffffffffff161415613242576040517f08c379a000000000000000000000000000000000000000000000000000000000815260040161323990614e79565b60405180910390fd5b61324b81612a57565b1561328b576040517f08c379a000000000000000000000000000000000000000000000000000000000815260040161328290614ee5565b60405180910390fd5b613297600083836133ac565b6001600360008473ffffffffffffffffffffffffffffffffffffffff1673ffffffffffffffffffffffffffffffffffffffff16815260200190815260200160002060008282546132e79190614818565b92505081905550816002600083815260200190815260200160002060006101000a81548173ffffffffffffffffffffffffffffffffffffffff021916908373ffffffffffffffffffffffffffffffffffffffff160217905550808273ffffffffffffffffffffffffffffffffffffffff16600073ffffffffffffffffffffffffffffffffffffffff167fddf252ad1be2c89b69c2b068fc378daa952ba7f163c4a11628f55a4df523b3ef60405160405180910390a46133a8600083836133b1565b5050565b505050565b505050565b6000808273ffffffffffffffffffffffffffffffffffffffff163b119050919050565b8280546133e590613d9b565b90600052602060002090601f016020900481019282613407576000855561344e565b82601f1061342057805160ff191683800117855561344e565b8280016001018555821561344e579182015b8281111561344d578251825591602001919060010190613432565b5b50905061345b9190613496565b5090565b60405180606001604052806060815260200160608152602001600073ffffffffffffffffffffffffffffffffffffffff1681525090565b5b808211156134af576000816000905550600101613497565b5090565b6000604051905090565b600080fd5b600080fd5b60007fffffffff0000000000000000000000000000000000000000000000000000000082169050919050565b6134fc816134c7565b811461350757600080fd5b50565b600081359050613519816134f3565b92915050565b600060208284031215613535576135346134bd565b5b60006135438482850161350a565b91505092915050565b60008115159050919050565b6135618161354c565b82525050565b600060208201905061357c6000830184613558565b92915050565b600081519050919050565b600082825260208201905092915050565b60005b838110156135bc5780820151818401526020810190506135a1565b838111156135cb576000848401525b50505050565b6000601f19601f8301169050919050565b60006135ed82613582565b6135f7818561358d565b935061360781856020860161359e565b613610816135d1565b840191505092915050565b6000602082019050818103600083015261363581846135e2565b905092915050565b6000819050919050565b6136508161363d565b811461365b57600080fd5b50565b60008135905061366d81613647565b92915050565b600060208284031215613689576136886134bd565b5b60006136978482850161365e565b91505092915050565b600073ffffffffffffffffffffffffffffffffffffffff82169050919050565b60006136cb826136a0565b9050919050565b6136db816136c0565b82525050565b60006020820190506136f660008301846136d2565b92915050565b613705816136c0565b811461371057600080fd5b50565b600081359050613722816136fc565b92915050565b6000806040838503121561373f5761373e6134bd565b5b600061374d85828601613713565b925050602061375e8582860161365e565b9150509250929050565b600080fd5b600080fd5b7f4e487b7100000000000000000000000000000000000000000000000000000000600052604160045260246000fd5b6137aa826135d1565b810181811067ffffffffffffffff821117156137c9576137c8613772565b5b80604052505050565b60006137dc6134b3565b90506137e882826137a1565b919050565b600067ffffffffffffffff82111561380857613807613772565b5b613811826135d1565b9050602081019050919050565b82818337600083830152505050565b600061384061383b846137ed565b6137d2565b90508281526020810184848401111561385c5761385b61376d565b5b61386784828561381e565b509392505050565b600082601f83011261388457613883613768565b5b813561389484826020860161382d565b91505092915050565b6000602082840312156138b3576138b26134bd565b5b600082013567ffffffffffffffff8111156138d1576138d06134c2565b5b6138dd8482850161386f565b91505092915050565b6138ef8161363d565b82525050565b600060208201905061390a60008301846138e6565b92915050565b60008060408385031215613927576139266134bd565b5b600083013567ffffffffffffffff811115613945576139446134c2565b5b6139518582860161386f565b925050602083013567ffffffffffffffff811115613972576139716134c2565b5b61397e8582860161386f565b9150509250929050565b6000806000606084860312156139a1576139a06134bd565b5b60006139af86828701613713565b93505060206139c086828701613713565b92505060406139d18682870161365e565b9150509250925092565b6000602082840312156139f1576139f06134bd565b5b60006139ff84828501613713565b91505092915050565b613a118161354c565b8114613a1c57600080fd5b50565b600081359050613a2e81613a08565b92915050565b60008060408385031215613a4b57613a4a6134bd565b5b6000613a5985828601613713565b9250506020613a6a85828601613a1f565b9150509250929050565b600067ffffffffffffffff821115613a8f57613a8e613772565b5b613a98826135d1565b9050602081019050919050565b6000613ab8613ab384613a74565b6137d2565b905082815260208101848484011115613ad457613ad361376d565b5b613adf84828561381e565b509392505050565b600082601f830112613afc57613afb613768565b5b8135613b0c848260208601613aa5565b91505092915050565b60008060008060808587031215613b2f57613b2e6134bd565b5b6000613b3d87828801613713565b9450506020613b4e87828801613713565b9350506040613b5f8782880161365e565b925050606085013567ffffffffffffffff811115613b8057613b7f6134c2565b5b613b8c87828801613ae7565b91505092959194509250565b60008060408385031215613baf57613bae6134bd565b5b6000613bbd85828601613713565b9250506020613bce85828601613713565b9150509250929050565b600081519050919050565b600082825260208201905092915050565b6000819050602082019050919050565b600082825260208201905092915050565b6000613c2082613582565b613c2a8185613c04565b9350613c3a81856020860161359e565b613c43816135d1565b840191505092915050565b613c57816136c0565b82525050565b60006060830160008301518482036000860152613c7a8282613c15565b91505060208301518482036020860152613c948282613c15565b9150506040830151613ca96040860182613c4e565b508091505092915050565b6000613cc08383613c5d565b905092915050565b6000602082019050919050565b6000613ce082613bd8565b613cea8185613be3565b935083602082028501613cfc85613bf4565b8060005b85811015613d385784840389528151613d198582613cb4565b9450613d2483613cc8565b925060208a01995050600181019050613d00565b50829750879550505050505092915050565b60006020820190508181036000830152613d648184613cd5565b905092915050565b7f4e487b7100000000000000000000000000000000000000000000000000000000600052602260045260246000fd5b60006002820490506001821680613db357607f821691505b60208210811415613dc757613dc6613d6c565b5b50919050565b7f4552433732313a20617070726f76616c20746f2063757272656e74206f776e6560008201527f7200000000000000000000000000000000000000000000000000000000000000602082015250565b6000613e2960218361358d565b9150613e3482613dcd565b604082019050919050565b60006020820190508181036000830152613e5881613e1c565b9050919050565b7f4552433732313a20617070726f76652063616c6c6572206973206e6f7420746f60008201527f6b656e206f776e6572206e6f7220617070726f76656420666f7220616c6c0000602082015250565b6000613ebb603e8361358d565b9150613ec682613e5f565b604082019050919050565b60006020820190508181036000830152613eea81613eae565b9050919050565b600081905092915050565b6000613f0782613582565b613f118185613ef1565b9350613f2181856020860161359e565b80840191505092915050565b6000613f398284613efc565b915081905092915050565b7f4552433732313a2063616c6c6572206973206e6f7420746f6b656e206f776e6560008201527f72206e6f7220617070726f766564000000000000000000000000000000000000602082015250565b6000613fa0602e8361358d565b9150613fab82613f44565b604082019050919050565b60006020820190508181036000830152613fcf81613f93565b9050919050565b600081905092915050565b50565b6000613ff1600083613fd6565b9150613ffc82613fe1565b600082019050919050565b600061401282613fe4565b9150819050919050565b7f4661696c656420746f207769746864726177204d617469630000000000000000600082015250565b600061405260188361358d565b915061405d8261401c565b602082019050919050565b6000602082019050818103600083015261408181614045565b9050919050565b7f4552433732313a20696e76616c696420746f6b656e2049440000000000000000600082015250565b60006140be60188361358d565b91506140c982614088565b602082019050919050565b600060208201905081810360008301526140ed816140b1565b9050919050565b7f4552433732313a2061646472657373207a65726f206973206e6f74206120766160008201527f6c6964206f776e65720000000000000000000000000000000000000000000000602082015250565b600061415060298361358d565b915061415b826140f4565b604082019050919050565b6000602082019050818103600083015261417f81614143565b9050919050565b60006141928285613efc565b915061419e8284613efc565b91508190509392505050565b7f4f776e61626c653a206e6577206f776e657220697320746865207a65726f206160008201527f6464726573730000000000000000000000000000000000000000000000000000602082015250565b600061420660268361358d565b9150614211826141aa565b604082019050919050565b60006020820190508181036000830152614235816141f9565b9050919050565b7f4e487b7100000000000000000000000000000000000000000000000000000000600052603260045260246000fd5b7f4e487b7100000000000000000000000000000000000000000000000000000000600052601160045260246000fd5b60006142a58261363d565b91507fffffffffffffffffffffffffffffffffffffffffffffffffffffffffffffffff8214156142d8576142d761426b565b5b600182019050919050565b7f2e00000000000000000000000000000000000000000000000000000000000000600082015250565b6000614319600183613ef1565b9150614324826142e3565b600182019050919050565b60008190508160005260206000209050919050565b6000815461435181613d9b565b61435b8186613ef1565b945060018216600081146143765760018114614387576143ba565b60ff198316865281860193506143ba565b6143908561432f565b60005b838110156143b257815481890152600182019150602081019050614393565b838801955050505b50505092915050565b60006143cf8285613efc565b91506143da8261430c565b91506143e68284614344565b91508190509392505050565b60006143fe8286614344565b915061440a8285613efc565b91506144168284614344565b9150819050949350505050565b7f7b226e616d65223a202200000000000000000000000000000000000000000000600082015250565b6000614459600a83613ef1565b915061446482614423565b600a82019050919050565b7f222c20226465736372697074696f6e223a20224120646f6d61696e206f6e207460008201527f686520506f6c79676f6e20506f6767657273206e616d6520736572766963652260208201527f2c2022696d616765223a2022646174613a696d6167652f7376672b786d6c3b6260408201527f61736536342c0000000000000000000000000000000000000000000000000000606082015250565b6000614517606683613ef1565b91506145228261446f565b606682019050919050565b7f222c227265636f7264223a202200000000000000000000000000000000000000600082015250565b6000614563600d83613ef1565b915061456e8261452d565b600d82019050919050565b7f222c2261747472696275746573223a205b7b2274726169745f74797065223a2060008201527f225265636f7264222c202276616c7565223a2022000000000000000000000000602082015250565b60006145d5603483613ef1565b91506145e082614579565b603482019050919050565b7f227d5d7d00000000000000000000000000000000000000000000000000000000600082015250565b6000614621600483613ef1565b915061462c826145eb565b600482019050919050565b60006146428261444c565b915061464e8287613efc565b91506146598261450a565b91506146658286613efc565b915061467082614556565b915061467c8285613efc565b9150614687826145c8565b91506146938284613efc565b915061469e82614614565b915081905095945050505050565b7f646174613a6170706c69636174696f6e2f6a736f6e3b6261736536342c000000600082015250565b60006146e2601d83613ef1565b91506146ed826146ac565b601d82019050919050565b6000614703826146d5565b915061470f8284613efc565b915081905092915050565b7f45524337323155524953746f726167653a2055524920736574206f66206e6f6e60008201527f6578697374656e7420746f6b656e000000000000000000000000000000000000602082015250565b6000614776602e8361358d565b91506147818261471a565b604082019050919050565b600060208201905081810360008301526147a581614769565b9050919050565b7f4f776e61626c653a2063616c6c6572206973206e6f7420746865206f776e6572600082015250565b60006147e260208361358d565b91506147ed826147ac565b602082019050919050565b60006020820190508181036000830152614811816147d5565b9050919050565b60006148238261363d565b915061482e8361363d565b9250827fffffffffffffffffffffffffffffffffffffffffffffffffffffffffffffffff038211156148635761486261426b565b5b828201905092915050565b7f4552433732313a20617070726f766520746f2063616c6c657200000000000000600082015250565b60006148a460198361358d565b91506148af8261486e565b602082019050919050565b600060208201905081810360008301526148d381614897565b9050919050565b7f4552433732313a207472616e7366657220746f206e6f6e20455243373231526560008201527f63656976657220696d706c656d656e7465720000000000000000000000000000602082015250565b600061493660328361358d565b9150614941826148da565b604082019050919050565b6000602082019050818103600083015261496581614929565b9050919050565b7f222c20226465736372697074696f6e223a20224120646f6d61696e206f6e207460008201527f68652053686f7763726976656c206e616d652073657276696365222c2022696d60208201527f616765223a2022646174613a696d6167652f7376672b786d6c3b62617365363460408201527f2c00000000000000000000000000000000000000000000000000000000000000606082015250565b6000614a14606183613ef1565b9150614a1f8261496c565b606182019050919050565b7f222c227265636f7264223a20224e6f207265636f726420736574222c2261747460008201527f72696275746573223a205b7b2274726169745f74797065223a20225265636f7260208201527f64222c202276616c7565223a20224e6f207265636f726420736574227d5d7d00604082015250565b6000614aac605f83613ef1565b9150614ab782614a2a565b605f82019050919050565b6000614acd8261444c565b9150614ad98285613efc565b9150614ae482614a07565b9150614af08284613efc565b9150614afb82614a9f565b91508190509392505050565b7f4e487b7100000000000000000000000000000000000000000000000000000000600052601260045260246000fd5b6000614b418261363d565b9150614b4c8361363d565b925082614b5c57614b5b614b07565b5b828204905092915050565b6000614b728261363d565b9150614b7d8361363d565b9250817fffffffffffffffffffffffffffffffffffffffffffffffffffffffffffffffff0483118215151615614bb657614bb561426b565b5b828202905092915050565b7f4552433732313a207472616e736665722066726f6d20696e636f72726563742060008201527f6f776e6572000000000000000000000000000000000000000000000000000000602082015250565b6000614c1d60258361358d565b9150614c2882614bc1565b604082019050919050565b60006020820190508181036000830152614c4c81614c10565b9050919050565b7f4552433732313a207472616e7366657220746f20746865207a65726f2061646460008201527f7265737300000000000000000000000000000000000000000000000000000000602082015250565b6000614caf60248361358d565b9150614cba82614c53565b604082019050919050565b60006020820190508181036000830152614cde81614ca2565b9050919050565b6000614cf08261363d565b9150614cfb8361363d565b925082821015614d0e57614d0d61426b565b5b828203905092915050565b600081519050919050565b600082825260208201905092915050565b6000614d4082614d19565b614d4a8185614d24565b9350614d5a81856020860161359e565b614d63816135d1565b840191505092915050565b6000608082019050614d8360008301876136d2565b614d9060208301866136d2565b614d9d60408301856138e6565b8181036060830152614daf8184614d35565b905095945050505050565b600081519050614dc9816134f3565b92915050565b600060208284031215614de557614de46134bd565b5b6000614df384828501614dba565b91505092915050565b6000614e078261363d565b9150614e128361363d565b925082614e2257614e21614b07565b5b828206905092915050565b7f4552433732313a206d696e7420746f20746865207a65726f2061646472657373600082015250565b6000614e6360208361358d565b9150614e6e82614e2d565b602082019050919050565b60006020820190508181036000830152614e9281614e56565b9050919050565b7f4552433732313a20746f6b656e20616c7265616479206d696e74656400000000600082015250565b6000614ecf601c8361358d565b9150614eda82614e99565b602082019050919050565b60006020820190508181036000830152614efe81614ec2565b905091905056fe4142434445464748494a4b4c4d4e4f505152535455565758595a6162636465666768696a6b6c6d6e6f707172737475767778797a303132333435363738392b2fa2646970667358221220c15239ea71c7630097c00b390ec4d951f5fc41def21ae83ef2d963ca0e07a1c764736f6c634300080a00333c73766720786d6c6e733d22687474703a2f2f7777772e77332e6f72672f323030302f737667222077696474683d2233353022206865696768743d22333230222066696c6c3d226e6f6e65223e3c646566733e3c6c696e6561724772616469656e742069643d2261222078313d222e3332222079313d222e3033222078323d222e3638222079323d222e3937223e3c73746f70206f66667365743d223025222073746f702d636f6c6f723d2223333138326365222f3e3c73746f70206f66667365743d2231342e323925222073746f702d636f6c6f723d2223333637666561222f3e3c73746f70206f66667365743d2232382e353725222073746f702d636f6c6f723d2223363137616566222f3e3c73746f70206f66667365743d2234322e383625222073746f702d636f6c6f723d2223376637356566222f3e3c73746f70206f66667365743d2235372e313425222073746f702d636f6c6f723d2223393637306566222f3e3c73746f70206f66667365743d2237312e343325222073746f702d636f6c6f723d2223613936626565222f3e3c73746f70206f66667365743d2231303025222073746f702d636f6c6f723d2223636235656565222f3e3c2f6c696e6561724772616469656e743e3c2f646566733e3c726563742066696c6c3d2275726c2823612922206865696768743d2231303025222077696474683d2231303025222f3e3c646566733e3c66696c7465722069643d22622220636f6c6f722d696e746572706f6c6174696f6e2d66696c746572733d2273524742222066696c746572556e6974733d227573657253706163654f6e55736522206865696768743d22333230222077696474683d22333530223e3c666544726f70536861646f772064783d2230222064793d22312220737464446576696174696f6e3d22322220666c6f6f642d6f7061636974793d222e323235222077696474683d223230302522206865696768743d2232303025222f3e3c2f66696c7465723e3c2f646566733e3c7061746820643d224d37322e3836332034322e39343961342e33383220342e3338322030203020302d342e33393420306c2d31302e30383120362e3033322d362e383520332e3933342d31302e30383120362e30333261342e33383220342e3338322030203020312d342e33393420306c2d382e3031332d342e37323161342e353220342e35322030203020312d312e3538392d312e36313620342e353420342e35342030203020312d2e3630382d322e313837762d392e333161342e323720342e3237203020302031202e3537322d322e32303820342e323520342e323520302030203120312e3632352d312e3539356c372e3838342d342e353961342e33383220342e33383220302030203120342e33393420306c372e38383420342e353961342e353220342e353220302030203120312e35383920312e36313620342e353420342e3534203020302031202e36303820322e31383776362e3033326c362e38352d342e303635762d362e30333261342e323720342e32372030203020302d2e3537322d322e32303820342e323520342e32352030203020302d312e3632352d312e3539354c34312e3435362032342e353961342e33383220342e3338322030203020302d342e33393420306c2d31342e38363420382e36353561342e323520342e32352030203020302d312e36323520312e35393520342e32373320342e3237332030203020302d2e35373220322e3230387631372e34343161342e323720342e3237203020302030202e35373220322e32303820342e323520342e323520302030203020312e36323520312e3539356c31342e38363420382e36353561342e33383220342e33383220302030203020342e33393420306c31302e3038312d352e39303120362e38352d342e3036352031302e3038312d352e39303161342e33383220342e33383220302030203120342e33393420306c372e38383420342e353961342e353220342e353220302030203120312e35383920312e36313620342e353420342e3534203020302031202e36303820322e31383776392e33313161342e323720342e32372030203020312d2e35373220322e32303820342e323520342e32352030203020312d312e36323520312e3539356c2d372e38383420342e37323161342e33383220342e3338322030203020312d342e33393420306c2d372e3838342d342e353961342e353220342e35322030203020312d312e3538392d312e36313620342e353320342e35332030203020312d2e3630382d322e313837762d362e3033326c2d362e383520342e30363576362e30333261342e323720342e3237203020302030202e35373220322e32303820342e323520342e323520302030203020312e36323520312e3539356c31342e38363420382e36353561342e33383220342e33383220302030203020342e33393420306c31342e3836342d382e36353561342e35343520342e35343520302030203020322e3139382d332e3830335635352e35333861342e323720342e32372030203020302d2e3537322d322e32303820342e323520342e32352030203020302d312e3632352d312e3539356c2d31342e3939332d382e3738367a222066696c6c3d2223666666222f3e3c7465787420783d2233302220793d223237302220666f6e742d73697a653d223232222066696c6c3d2223666666222066696c7465723d2275726c282362292220666f6e742d66616d696c793d22506c7573204a616b617274612053616e732c44656a6156752053616e732c4e6f746f20436f6c6f7220456d6f6a692c4170706c6520436f6c6f7220456d6f6a692c73616e732d73657269662220666f6e742d7765696768743d22626f6c64223e",
  "linkReferences": {},
  "deployedLinkReferences": {}
}