{
  "_format": "hh-sol-artifact-1",
  "contractName": "Domains",
  "sourceName": "contracts/Domains.sol",
  "abi": [
    {
      "inputs": [
        {
          "internalType": "string",
          "name": "_tld",
          "type": "string"
        },
        {
          "internalType": "uint256",
          "name": "_price",
          "type": "uint256"
        }
      ],
      "stateMutability": "payable",
      "type": "constructor"
    },
    {
      "anonymous": false,
      "inputs": [
        {
          "indexed": true,
          "internalType": "address",
          "name": "owner",
          "type": "address"
        },
        {
          "indexed": true,
          "internalType": "address",
          "name": "approved",
          "type": "address"
        },
        {
          "indexed": true,
          "internalType": "uint256",
          "name": "tokenId",
          "type": "uint256"
        }
      ],
      "name": "Approval",
      "type": "event"
    },
    {
      "anonymous": false,
      "inputs": [
        {
          "indexed": true,
          "internalType": "address",
          "name": "owner",
          "type": "address"
        },
        {
          "indexed": true,
          "internalType": "address",
          "name": "operator",
          "type": "address"
        },
        {
          "indexed": false,
          "internalType": "bool",
          "name": "approved",
          "type": "bool"
        }
      ],
      "name": "ApprovalForAll",
      "type": "event"
    },
    {
      "anonymous": false,
      "inputs": [
        {
          "indexed": true,
          "internalType": "address",
          "name": "from",
          "type": "address"
        },
        {
          "indexed": true,
          "internalType": "address",
          "name": "to",
          "type": "address"
        },
        {
          "indexed": true,
          "internalType": "uint256",
          "name": "tokenId",
          "type": "uint256"
        }
      ],
      "name": "Transfer",
      "type": "event"
    },
    {
      "inputs": [
        {
          "internalType": "address",
          "name": "to",
          "type": "address"
        },
        {
          "internalType": "uint256",
          "name": "tokenId",
          "type": "uint256"
        }
      ],
      "name": "approve",
      "outputs": [],
      "stateMutability": "nonpayable",
      "type": "function"
    },
    {
      "inputs": [
        {
          "internalType": "address",
          "name": "owner",
          "type": "address"
        }
      ],
      "name": "balanceOf",
      "outputs": [
        {
          "internalType": "uint256",
          "name": "",
          "type": "uint256"
        }
      ],
      "stateMutability": "view",
      "type": "function"
    },
    {
      "inputs": [
        {
          "internalType": "string",
          "name": "",
          "type": "string"
        }
      ],
      "name": "domainToTokenURI",
      "outputs": [
        {
          "internalType": "uint256",
          "name": "",
          "type": "uint256"
        }
      ],
      "stateMutability": "view",
      "type": "function"
    },
    {
      "inputs": [
        {
          "internalType": "string",
          "name": "",
          "type": "string"
        }
      ],
      "name": "domains",
      "outputs": [
        {
          "internalType": "address",
          "name": "",
          "type": "address"
        }
      ],
      "stateMutability": "view",
      "type": "function"
    },
    {
      "inputs": [
        {
          "internalType": "string",
          "name": "name",
          "type": "string"
        }
      ],
      "name": "getAddress",
      "outputs": [
        {
          "internalType": "address",
          "name": "",
          "type": "address"
        }
      ],
      "stateMutability": "view",
      "type": "function"
    },
    {
      "inputs": [
        {
          "internalType": "uint256",
          "name": "tokenId",
          "type": "uint256"
        }
      ],
      "name": "getApproved",
      "outputs": [
        {
          "internalType": "address",
          "name": "",
          "type": "address"
        }
      ],
      "stateMutability": "view",
      "type": "function"
    },
    {
      "inputs": [
        {
          "internalType": "string",
          "name": "name",
          "type": "string"
        }
      ],
      "name": "getRecord",
      "outputs": [
        {
          "internalType": "string",
          "name": "",
          "type": "string"
        }
      ],
      "stateMutability": "view",
      "type": "function"
    },
    {
      "inputs": [
        {
          "internalType": "address",
          "name": "owner",
          "type": "address"
        },
        {
          "internalType": "address",
          "name": "operator",
          "type": "address"
        }
      ],
      "name": "isApprovedForAll",
      "outputs": [
        {
          "internalType": "bool",
          "name": "",
          "type": "bool"
        }
      ],
      "stateMutability": "view",
      "type": "function"
    },
    {
      "inputs": [],
      "name": "name",
      "outputs": [
        {
          "internalType": "string",
          "name": "",
          "type": "string"
        }
      ],
      "stateMutability": "view",
      "type": "function"
    },
    {
      "inputs": [
        {
          "internalType": "uint256",
          "name": "tokenId",
          "type": "uint256"
        }
      ],
      "name": "ownerOf",
      "outputs": [
        {
          "internalType": "address",
          "name": "",
          "type": "address"
        }
      ],
      "stateMutability": "view",
      "type": "function"
    },
    {
      "inputs": [],
      "name": "price",
      "outputs": [
        {
          "internalType": "uint256",
          "name": "",
          "type": "uint256"
        }
      ],
      "stateMutability": "view",
      "type": "function"
    },
    {
      "inputs": [
        {
          "internalType": "string",
          "name": "",
          "type": "string"
        }
      ],
      "name": "records",
      "outputs": [
        {
          "internalType": "string",
          "name": "",
          "type": "string"
        }
      ],
      "stateMutability": "view",
      "type": "function"
    },
    {
      "inputs": [
        {
          "internalType": "string",
          "name": "name",
          "type": "string"
        }
      ],
      "name": "register",
      "outputs": [],
      "stateMutability": "payable",
      "type": "function"
    },
    {
      "inputs": [
        {
          "internalType": "address",
          "name": "from",
          "type": "address"
        },
        {
          "internalType": "address",
          "name": "to",
          "type": "address"
        },
        {
          "internalType": "uint256",
          "name": "tokenId",
          "type": "uint256"
        }
      ],
      "name": "safeTransferFrom",
      "outputs": [],
      "stateMutability": "nonpayable",
      "type": "function"
    },
    {
      "inputs": [
        {
          "internalType": "address",
          "name": "from",
          "type": "address"
        },
        {
          "internalType": "address",
          "name": "to",
          "type": "address"
        },
        {
          "internalType": "uint256",
          "name": "tokenId",
          "type": "uint256"
        },
        {
          "internalType": "bytes",
          "name": "data",
          "type": "bytes"
        }
      ],
      "name": "safeTransferFrom",
      "outputs": [],
      "stateMutability": "nonpayable",
      "type": "function"
    },
    {
      "inputs": [
        {
          "internalType": "address",
          "name": "operator",
          "type": "address"
        },
        {
          "internalType": "bool",
          "name": "approved",
          "type": "bool"
        }
      ],
      "name": "setApprovalForAll",
      "outputs": [],
      "stateMutability": "nonpayable",
      "type": "function"
    },
    {
      "inputs": [
        {
          "internalType": "string",
          "name": "name",
          "type": "string"
        },
        {
          "internalType": "string",
          "name": "record",
          "type": "string"
        }
      ],
      "name": "setRecord",
      "outputs": [],
      "stateMutability": "nonpayable",
      "type": "function"
    },
    {
      "inputs": [
        {
          "internalType": "bytes4",
          "name": "interfaceId",
          "type": "bytes4"
        }
      ],
      "name": "supportsInterface",
      "outputs": [
        {
          "internalType": "bool",
          "name": "",
          "type": "bool"
        }
      ],
      "stateMutability": "view",
      "type": "function"
    },
    {
      "inputs": [],
      "name": "symbol",
      "outputs": [
        {
          "internalType": "string",
          "name": "",
          "type": "string"
        }
      ],
      "stateMutability": "view",
      "type": "function"
    },
    {
      "inputs": [],
      "name": "tld",
      "outputs": [
        {
          "internalType": "string",
          "name": "",
          "type": "string"
        }
      ],
      "stateMutability": "view",
      "type": "function"
    },
    {
      "inputs": [
        {
          "internalType": "uint256",
          "name": "tokenId",
          "type": "uint256"
        }
      ],
      "name": "tokenURI",
      "outputs": [
        {
          "internalType": "string",
          "name": "",
          "type": "string"
        }
      ],
      "stateMutability": "view",
      "type": "function"
    },
    {
      "inputs": [
        {
          "internalType": "address",
          "name": "from",
          "type": "address"
        },
        {
          "internalType": "address",
          "name": "to",
          "type": "address"
        },
        {
          "internalType": "uint256",
          "name": "tokenId",
          "type": "uint256"
        }
      ],
      "name": "transferFrom",
      "outputs": [],
      "stateMutability": "nonpayable",
      "type": "function"
    }
  ],
  "bytecode": "0x60806040526040518061086001604052806108308152602001620040ff6108309139600a90805190602001906200003892919062000174565b506040518060400160405280600d81526020017f3c2f746578743e3c2f7376673e00000000000000000000000000000000000000815250600b90805190602001906200008692919062000174565b506040516200492f3803806200492f8339818101604052810190620000ac9190620003fc565b6040518060400160405280601b81526020017f506f6c79676f6e20446f6d61696e2053657276696365205465737400000000008152506040518060400160405280600481526020017f504453540000000000000000000000000000000000000000000000000000000081525081600090805190602001906200013092919062000174565b5080600190805190602001906200014992919062000174565b50505081600890805190602001906200016492919062000174565b50806009819055505050620004c7565b828054620001829062000491565b90600052602060002090601f016020900481019282620001a65760008555620001f2565b82601f10620001c157805160ff1916838001178555620001f2565b82800160010185558215620001f2579182015b82811115620001f1578251825591602001919060010190620001d4565b5b50905062000201919062000205565b5090565b5b808211156200022057600081600090555060010162000206565b5090565b6000604051905090565b600080fd5b600080fd5b600080fd5b600080fd5b6000601f19601f8301169050919050565b7f4e487b7100000000000000000000000000000000000000000000000000000000600052604160045260246000fd5b6200028d8262000242565b810181811067ffffffffffffffff82111715620002af57620002ae62000253565b5b80604052505050565b6000620002c462000224565b9050620002d2828262000282565b919050565b600067ffffffffffffffff821115620002f557620002f462000253565b5b620003008262000242565b9050602081019050919050565b60005b838110156200032d57808201518184015260208101905062000310565b838111156200033d576000848401525b50505050565b60006200035a6200035484620002d7565b620002b8565b9050828152602081018484840111156200037957620003786200023d565b5b620003868482856200030d565b509392505050565b600082601f830112620003a657620003a562000238565b5b8151620003b884826020860162000343565b91505092915050565b6000819050919050565b620003d681620003c1565b8114620003e257600080fd5b50565b600081519050620003f681620003cb565b92915050565b600080604083850312156200041657620004156200022e565b5b600083015167ffffffffffffffff81111562000437576200043662000233565b5b62000445858286016200038e565b92505060206200045885828601620003e5565b9150509250929050565b7f4e487b7100000000000000000000000000000000000000000000000000000000600052602260045260246000fd5b60006002820490506001821680620004aa57607f821691505b60208210811415620004c157620004c062000462565b5b50919050565b613c2880620004d76000396000f3fe6080604052600436106101355760003560e01c80636352211e116100ab578063b88d4fde1161006f578063b88d4fde14610472578063bf40fac11461049b578063c1880a98146104d8578063c87b56dd14610501578063e985e9c51461053e578063f2c298be1461057b57610135565b80636352211e1461037957806370a08231146103b657806395d89b41146103f3578063a035b1fe1461041e578063a22cb4651461044957610135565b806311dd8845116100fd57806311dd88451461024557806323b872dd1461028257806326449235146102ab5780632d551432146102e857806342842e0e14610313578063541e771d1461033c57610135565b806301ffc9a71461013a57806306fdde0314610177578063081812fc146101a2578063095ea7b3146101df57806310f94a4714610208575b600080fd5b34801561014657600080fd5b50610161600480360381019061015c91906123b1565b610597565b60405161016e91906123f9565b60405180910390f35b34801561018357600080fd5b5061018c610679565b60405161019991906124ad565b60405180910390f35b3480156101ae57600080fd5b506101c960048036038101906101c49190612505565b61070b565b6040516101d69190612573565b60405180910390f35b3480156101eb57600080fd5b50610206600480360381019061020191906125ba565b610751565b005b34801561021457600080fd5b5061022f600480360381019061022a919061272f565b610869565b60405161023c9190612787565b60405180910390f35b34801561025157600080fd5b5061026c6004803603810190610267919061272f565b610897565b60405161027991906124ad565b60405180910390f35b34801561028e57600080fd5b506102a960048036038101906102a491906127a2565b610947565b005b3480156102b757600080fd5b506102d260048036038101906102cd919061272f565b6109a7565b6040516102df9190612573565b60405180910390f35b3480156102f457600080fd5b506102fd6109f0565b60405161030a91906124ad565b60405180910390f35b34801561031f57600080fd5b5061033a600480360381019061033591906127a2565b610a7e565b005b34801561034857600080fd5b50610363600480360381019061035e919061272f565b610a9e565b60405161037091906124ad565b60405180910390f35b34801561038557600080fd5b506103a0600480360381019061039b9190612505565b610b54565b6040516103ad9190612573565b60405180910390f35b3480156103c257600080fd5b506103dd60048036038101906103d891906127f5565b610c06565b6040516103ea9190612787565b60405180910390f35b3480156103ff57600080fd5b50610408610cbe565b60405161041591906124ad565b60405180910390f35b34801561042a57600080fd5b50610433610d50565b6040516104409190612787565b60405180910390f35b34801561045557600080fd5b50610470600480360381019061046b919061284e565b610d56565b005b34801561047e57600080fd5b506104996004803603810190610494919061292f565b610d6c565b005b3480156104a757600080fd5b506104c260048036038101906104bd919061272f565b610dce565b6040516104cf9190612573565b60405180910390f35b3480156104e457600080fd5b506104ff60048036038101906104fa91906129b2565b610e16565b005b34801561050d57600080fd5b5061052860048036038101906105239190612505565b610f36565b60405161053591906124ad565b60405180910390f35b34801561054a57600080fd5b5061056560048036038101906105609190612a2a565b611049565b60405161057291906123f9565b60405180910390f35b61059560048036038101906105909190612aca565b6110dd565b005b60007f80ac58cd000000000000000000000000000000000000000000000000000000007bffffffffffffffffffffffffffffffffffffffffffffffffffffffff1916827bffffffffffffffffffffffffffffffffffffffffffffffffffffffff1916148061066257507f5b5e139f000000000000000000000000000000000000000000000000000000007bffffffffffffffffffffffffffffffffffffffffffffffffffffffff1916827bffffffffffffffffffffffffffffffffffffffffffffffffffffffff1916145b806106725750610671826112a2565b5b9050919050565b60606000805461068890612b46565b80601f01602080910402602001604051908101604052809291908181526020018280546106b490612b46565b80156107015780601f106106d657610100808354040283529160200191610701565b820191906000526020600020905b8154815290600101906020018083116106e457829003601f168201915b5050505050905090565b60006107168261130c565b6004600083815260200190815260200160002060009054906101000a900473ffffffffffffffffffffffffffffffffffffffff169050919050565b600061075c82610b54565b90508073ffffffffffffffffffffffffffffffffffffffff168373ffffffffffffffffffffffffffffffffffffffff1614156107cd576040517f08c379a00000000000000000000000000000000000000000000000000000000081526004016107c490612bea565b60405180910390fd5b8073ffffffffffffffffffffffffffffffffffffffff166107ec611357565b73ffffffffffffffffffffffffffffffffffffffff16148061081b575061081a81610815611357565b611049565b5b61085a576040517f08c379a000000000000000000000000000000000000000000000000000000000815260040161085190612c7c565b60405180910390fd5b610864838361135f565b505050565b600e818051602081018201805184825260208301602085012081835280955050505050506000915090505481565b6060600d826040516108a99190612cd8565b908152602001604051809103902080546108c290612b46565b80601f01602080910402602001604051908101604052809291908181526020018280546108ee90612b46565b801561093b5780601f106109105761010080835404028352916020019161093b565b820191906000526020600020905b81548152906001019060200180831161091e57829003601f168201915b50505050509050919050565b610958610952611357565b82611418565b610997576040517f08c379a000000000000000000000000000000000000000000000000000000000815260040161098e90612d61565b60405180910390fd5b6109a28383836114ad565b505050565b600c818051602081018201805184825260208301602085012081835280955050505050506000915054906101000a900473ffffffffffffffffffffffffffffffffffffffff1681565b600880546109fd90612b46565b80601f0160208091040260200160405190810160405280929190818152602001828054610a2990612b46565b8015610a765780601f10610a4b57610100808354040283529160200191610a76565b820191906000526020600020905b815481529060010190602001808311610a5957829003601f168201915b505050505081565b610a9983838360405180602001604052806000815250610d6c565b505050565b600d818051602081018201805184825260208301602085012081835280955050505050506000915090508054610ad390612b46565b80601f0160208091040260200160405190810160405280929190818152602001828054610aff90612b46565b8015610b4c5780601f10610b2157610100808354040283529160200191610b4c565b820191906000526020600020905b815481529060010190602001808311610b2f57829003601f168201915b505050505081565b6000806002600084815260200190815260200160002060009054906101000a900473ffffffffffffffffffffffffffffffffffffffff169050600073ffffffffffffffffffffffffffffffffffffffff168173ffffffffffffffffffffffffffffffffffffffff161415610bfd576040517f08c379a0000000000000000000000000000000000000000000000000000000008152600401610bf490612dcd565b60405180910390fd5b80915050919050565b60008073ffffffffffffffffffffffffffffffffffffffff168273ffffffffffffffffffffffffffffffffffffffff161415610c77576040517f08c379a0000000000000000000000000000000000000000000000000000000008152600401610c6e90612e5f565b60405180910390fd5b600360008373ffffffffffffffffffffffffffffffffffffffff1673ffffffffffffffffffffffffffffffffffffffff168152602001908152602001600020549050919050565b606060018054610ccd90612b46565b80601f0160208091040260200160405190810160405280929190818152602001828054610cf990612b46565b8015610d465780601f10610d1b57610100808354040283529160200191610d46565b820191906000526020600020905b815481529060010190602001808311610d2957829003601f168201915b5050505050905090565b60095481565b610d68610d61611357565b8383611714565b5050565b610d7d610d77611357565b83611418565b610dbc576040517f08c379a0000000000000000000000000000000000000000000000000000000008152600401610db390612d61565b60405180910390fd5b610dc884848484611881565b50505050565b6000600c82604051610de09190612cd8565b908152602001604051809103902060009054906101000a900473ffffffffffffffffffffffffffffffffffffffff169050919050565b3373ffffffffffffffffffffffffffffffffffffffff16600c83604051610e3d9190612cd8565b908152602001604051809103902060009054906101000a900473ffffffffffffffffffffffffffffffffffffffff1673ffffffffffffffffffffffffffffffffffffffff1614610ec2576040517f08c379a0000000000000000000000000000000000000000000000000000000008152600401610eb990612ecb565b60405180910390fd5b6000600e83604051610ed49190612cd8565b908152602001604051809103902054905081600d84604051610ef69190612cd8565b90815260200160405180910390209080519060200190610f179291906122a2565b506000610f2484846118dd565b9050610f308282611999565b50505050565b6060610f418261130c565b6000600660008481526020019081526020016000208054610f6190612b46565b80601f0160208091040260200160405190810160405280929190818152602001828054610f8d90612b46565b8015610fda5780601f10610faf57610100808354040283529160200191610fda565b820191906000526020600020905b815481529060010190602001808311610fbd57829003601f168201915b505050505090506000610feb611a0d565b9050600081511415611001578192505050611044565b60008251111561103657808260405160200161101e929190612eeb565b60405160208183030381529060405292505050611044565b61103f84611a24565b925050505b919050565b6000600560008473ffffffffffffffffffffffffffffffffffffffff1673ffffffffffffffffffffffffffffffffffffffff16815260200190815260200160002060008373ffffffffffffffffffffffffffffffffffffffff1673ffffffffffffffffffffffffffffffffffffffff16815260200190815260200160002060009054906101000a900460ff16905092915050565b600073ffffffffffffffffffffffffffffffffffffffff16600c8383604051611107929190612f34565b908152602001604051809103902060009054906101000a900473ffffffffffffffffffffffffffffffffffffffff1673ffffffffffffffffffffffffffffffffffffffff161461115657600080fd5b60095434101561119b576040517f08c379a000000000000000000000000000000000000000000000000000000000815260040161119290612f99565b60405180910390fd5b60006111a76007611a8c565b905060006111f884848080601f016020809104026020016040519081016040528093929190818152602001838380828437600081840152601f19601f82011690508083019250505050505050611a9a565b90506112043383611b53565b61120e8282611999565b33600c8585604051611221929190612f34565b908152602001604051809103902060006101000a81548173ffffffffffffffffffffffffffffffffffffffff021916908373ffffffffffffffffffffffffffffffffffffffff16021790555081600e8585604051611280929190612f34565b90815260200160405180910390208190555061129c6007611b71565b50505050565b60007f01ffc9a7000000000000000000000000000000000000000000000000000000007bffffffffffffffffffffffffffffffffffffffffffffffffffffffff1916827bffffffffffffffffffffffffffffffffffffffffffffffffffffffff1916149050919050565b61131581611b87565b611354576040517f08c379a000000000000000000000000000000000000000000000000000000000815260040161134b90612dcd565b60405180910390fd5b50565b600033905090565b816004600083815260200190815260200160002060006101000a81548173ffffffffffffffffffffffffffffffffffffffff021916908373ffffffffffffffffffffffffffffffffffffffff160217905550808273ffffffffffffffffffffffffffffffffffffffff166113d283610b54565b73ffffffffffffffffffffffffffffffffffffffff167f8c5be1e5ebec7d5bd14f71427d1e84f3dd0314c0f7b2291e5b200ac8c7c3b92560405160405180910390a45050565b60008061142483610b54565b90508073ffffffffffffffffffffffffffffffffffffffff168473ffffffffffffffffffffffffffffffffffffffff16148061146657506114658185611049565b5b806114a457508373ffffffffffffffffffffffffffffffffffffffff1661148c8461070b565b73ffffffffffffffffffffffffffffffffffffffff16145b91505092915050565b8273ffffffffffffffffffffffffffffffffffffffff166114cd82610b54565b73ffffffffffffffffffffffffffffffffffffffff1614611523576040517f08c379a000000000000000000000000000000000000000000000000000000000815260040161151a9061302b565b60405180910390fd5b600073ffffffffffffffffffffffffffffffffffffffff168273ffffffffffffffffffffffffffffffffffffffff161415611593576040517f08c379a000000000000000000000000000000000000000000000000000000000815260040161158a906130bd565b60405180910390fd5b61159e838383611bf3565b6115a960008261135f565b6001600360008573ffffffffffffffffffffffffffffffffffffffff1673ffffffffffffffffffffffffffffffffffffffff16815260200190815260200160002060008282546115f9919061310c565b925050819055506001600360008473ffffffffffffffffffffffffffffffffffffffff1673ffffffffffffffffffffffffffffffffffffffff16815260200190815260200160002060008282546116509190613140565b92505081905550816002600083815260200190815260200160002060006101000a81548173ffffffffffffffffffffffffffffffffffffffff021916908373ffffffffffffffffffffffffffffffffffffffff160217905550808273ffffffffffffffffffffffffffffffffffffffff168473ffffffffffffffffffffffffffffffffffffffff167fddf252ad1be2c89b69c2b068fc378daa952ba7f163c4a11628f55a4df523b3ef60405160405180910390a461170f838383611bf8565b505050565b8173ffffffffffffffffffffffffffffffffffffffff168373ffffffffffffffffffffffffffffffffffffffff161415611783576040517f08c379a000000000000000000000000000000000000000000000000000000000815260040161177a906131e2565b60405180910390fd5b80600560008573ffffffffffffffffffffffffffffffffffffffff1673ffffffffffffffffffffffffffffffffffffffff16815260200190815260200160002060008473ffffffffffffffffffffffffffffffffffffffff1673ffffffffffffffffffffffffffffffffffffffff16815260200190815260200160002060006101000a81548160ff0219169083151502179055508173ffffffffffffffffffffffffffffffffffffffff168373ffffffffffffffffffffffffffffffffffffffff167f17307eab39ab6107e8899845ad3d59bd9653f200f220920489ca2b5937696c318360405161187491906123f9565b60405180910390a3505050565b61188c8484846114ad565b61189884848484611bfd565b6118d7576040517f08c379a00000000000000000000000000000000000000000000000000000000081526004016118ce90613274565b60405180910390fd5b50505050565b606060008360086040516020016118f5929190613374565b60405160208183030381529060405290506000600a82600b60405160200161191f939291906133a3565b604051602081830303815290604052905060006119668361193f84611d85565b876040516020016119529392919061359c565b604051602081830303815290604052611d85565b905060008160405160200161197b9190613645565b60405160208183030381529060405290508094505050505092915050565b6119a282611b87565b6119e1576040517f08c379a00000000000000000000000000000000000000000000000000000000081526004016119d8906136d9565b60405180910390fd5b80600660008481526020019081526020016000209080519060200190611a089291906122a2565b505050565b606060405180602001604052806000815250905090565b6060611a2f8261130c565b6000611a39611a0d565b90506000815111611a595760405180602001604052806000815250611a84565b80611a6384611ee9565b604051602001611a74929190612eeb565b6040516020818303038152906040525b915050919050565b600081600001549050919050565b60606000826008604051602001611ab2929190613374565b60405160208183030381529060405290506000600a82600b604051602001611adc939291906133a3565b60405160208183030381529060405290506000611b2183611afc84611d85565b604051602001611b0d92919061384f565b604051602081830303815290604052611d85565b9050600081604051602001611b369190613645565b604051602081830303815290604052905080945050505050919050565b611b6d82826040518060200160405280600081525061204a565b5050565b6001816000016000828254019250508190555050565b60008073ffffffffffffffffffffffffffffffffffffffff166002600084815260200190815260200160002060009054906101000a900473ffffffffffffffffffffffffffffffffffffffff1673ffffffffffffffffffffffffffffffffffffffff1614159050919050565b505050565b505050565b6000611c1e8473ffffffffffffffffffffffffffffffffffffffff166120a5565b15611d78578373ffffffffffffffffffffffffffffffffffffffff1663150b7a02611c47611357565b8786866040518563ffffffff1660e01b8152600401611c6994939291906138e9565b6020604051808303816000875af1925050508015611ca557506040513d601f19601f82011682018060405250810190611ca2919061394a565b60015b611d28573d8060008114611cd5576040519150601f19603f3d011682016040523d82523d6000602084013e611cda565b606091505b50600081511415611d20576040517f08c379a0000000000000000000000000000000000000000000000000000000008152600401611d1790613274565b60405180910390fd5b805181602001fd5b63150b7a0260e01b7bffffffffffffffffffffffffffffffffffffffffffffffffffffffff1916817bffffffffffffffffffffffffffffffffffffffffffffffffffffffff191614915050611d7d565b600190505b949350505050565b6060600082511415611da857604051806020016040528060008152509050611ee4565b6000604051806060016040528060408152602001613bb36040913990506000600360028551611dd79190613140565b611de191906139a6565b6004611ded91906139d7565b67ffffffffffffffff811115611e0657611e05612604565b5b6040519080825280601f01601f191660200182016040528015611e385781602001600182028036833780820191505090505b509050600182016020820185865187015b80821015611ea4576003820191508151603f8160121c168501518453600184019350603f81600c1c168501518453600184019350603f8160061c168501518453600184019350603f8116850151845360018401935050611e49565b5050600386510660018114611ec05760028114611ed357611edb565b603d6001830353603d6002830353611edb565b603d60018303535b50505080925050505b919050565b60606000821415611f31576040518060400160405280600181526020017f30000000000000000000000000000000000000000000000000000000000000008152509050612045565b600082905060005b60008214611f63578080611f4c90613a31565b915050600a82611f5c91906139a6565b9150611f39565b60008167ffffffffffffffff811115611f7f57611f7e612604565b5b6040519080825280601f01601f191660200182016040528015611fb15781602001600182028036833780820191505090505b5090505b6000851461203e57600182611fca919061310c565b9150600a85611fd99190613a7a565b6030611fe59190613140565b60f81b818381518110611ffb57611ffa613aab565b5b60200101907effffffffffffffffffffffffffffffffffffffffffffffffffffffffffffff1916908160001a905350600a8561203791906139a6565b9450611fb5565b8093505050505b919050565b61205483836120c8565b6120616000848484611bfd565b6120a0576040517f08c379a000000000000000000000000000000000000000000000000000000000815260040161209790613274565b60405180910390fd5b505050565b6000808273ffffffffffffffffffffffffffffffffffffffff163b119050919050565b600073ffffffffffffffffffffffffffffffffffffffff168273ffffffffffffffffffffffffffffffffffffffff161415612138576040517f08c379a000000000000000000000000000000000000000000000000000000000815260040161212f90613b26565b60405180910390fd5b61214181611b87565b15612181576040517f08c379a000000000000000000000000000000000000000000000000000000000815260040161217890613b92565b60405180910390fd5b61218d60008383611bf3565b6001600360008473ffffffffffffffffffffffffffffffffffffffff1673ffffffffffffffffffffffffffffffffffffffff16815260200190815260200160002060008282546121dd9190613140565b92505081905550816002600083815260200190815260200160002060006101000a81548173ffffffffffffffffffffffffffffffffffffffff021916908373ffffffffffffffffffffffffffffffffffffffff160217905550808273ffffffffffffffffffffffffffffffffffffffff16600073ffffffffffffffffffffffffffffffffffffffff167fddf252ad1be2c89b69c2b068fc378daa952ba7f163c4a11628f55a4df523b3ef60405160405180910390a461229e60008383611bf8565b5050565b8280546122ae90612b46565b90600052602060002090601f0160209004810192826122d05760008555612317565b82601f106122e957805160ff1916838001178555612317565b82800160010185558215612317579182015b828111156123165782518255916020019190600101906122fb565b5b5090506123249190612328565b5090565b5b80821115612341576000816000905550600101612329565b5090565b6000604051905090565b600080fd5b600080fd5b60007fffffffff0000000000000000000000000000000000000000000000000000000082169050919050565b61238e81612359565b811461239957600080fd5b50565b6000813590506123ab81612385565b92915050565b6000602082840312156123c7576123c661234f565b5b60006123d58482850161239c565b91505092915050565b60008115159050919050565b6123f3816123de565b82525050565b600060208201905061240e60008301846123ea565b92915050565b600081519050919050565b600082825260208201905092915050565b60005b8381101561244e578082015181840152602081019050612433565b8381111561245d576000848401525b50505050565b6000601f19601f8301169050919050565b600061247f82612414565b612489818561241f565b9350612499818560208601612430565b6124a281612463565b840191505092915050565b600060208201905081810360008301526124c78184612474565b905092915050565b6000819050919050565b6124e2816124cf565b81146124ed57600080fd5b50565b6000813590506124ff816124d9565b92915050565b60006020828403121561251b5761251a61234f565b5b6000612529848285016124f0565b91505092915050565b600073ffffffffffffffffffffffffffffffffffffffff82169050919050565b600061255d82612532565b9050919050565b61256d81612552565b82525050565b60006020820190506125886000830184612564565b92915050565b61259781612552565b81146125a257600080fd5b50565b6000813590506125b48161258e565b92915050565b600080604083850312156125d1576125d061234f565b5b60006125df858286016125a5565b92505060206125f0858286016124f0565b9150509250929050565b600080fd5b600080fd5b7f4e487b7100000000000000000000000000000000000000000000000000000000600052604160045260246000fd5b61263c82612463565b810181811067ffffffffffffffff8211171561265b5761265a612604565b5b80604052505050565b600061266e612345565b905061267a8282612633565b919050565b600067ffffffffffffffff82111561269a57612699612604565b5b6126a382612463565b9050602081019050919050565b82818337600083830152505050565b60006126d26126cd8461267f565b612664565b9050828152602081018484840111156126ee576126ed6125ff565b5b6126f98482856126b0565b509392505050565b600082601f830112612716576127156125fa565b5b81356127268482602086016126bf565b91505092915050565b6000602082840312156127455761274461234f565b5b600082013567ffffffffffffffff81111561276357612762612354565b5b61276f84828501612701565b91505092915050565b612781816124cf565b82525050565b600060208201905061279c6000830184612778565b92915050565b6000806000606084860312156127bb576127ba61234f565b5b60006127c9868287016125a5565b93505060206127da868287016125a5565b92505060406127eb868287016124f0565b9150509250925092565b60006020828403121561280b5761280a61234f565b5b6000612819848285016125a5565b91505092915050565b61282b816123de565b811461283657600080fd5b50565b60008135905061284881612822565b92915050565b600080604083850312156128655761286461234f565b5b6000612873858286016125a5565b925050602061288485828601612839565b9150509250929050565b600067ffffffffffffffff8211156128a9576128a8612604565b5b6128b282612463565b9050602081019050919050565b60006128d26128cd8461288e565b612664565b9050828152602081018484840111156128ee576128ed6125ff565b5b6128f98482856126b0565b509392505050565b600082601f830112612916576129156125fa565b5b81356129268482602086016128bf565b91505092915050565b600080600080608085870312156129495761294861234f565b5b6000612957878288016125a5565b9450506020612968878288016125a5565b9350506040612979878288016124f0565b925050606085013567ffffffffffffffff81111561299a57612999612354565b5b6129a687828801612901565b91505092959194509250565b600080604083850312156129c9576129c861234f565b5b600083013567ffffffffffffffff8111156129e7576129e6612354565b5b6129f385828601612701565b925050602083013567ffffffffffffffff811115612a1457612a13612354565b5b612a2085828601612701565b9150509250929050565b60008060408385031215612a4157612a4061234f565b5b6000612a4f858286016125a5565b9250506020612a60858286016125a5565b9150509250929050565b600080fd5b600080fd5b60008083601f840112612a8a57612a896125fa565b5b8235905067ffffffffffffffff811115612aa757612aa6612a6a565b5b602083019150836001820283011115612ac357612ac2612a6f565b5b9250929050565b60008060208385031215612ae157612ae061234f565b5b600083013567ffffffffffffffff811115612aff57612afe612354565b5b612b0b85828601612a74565b92509250509250929050565b7f4e487b7100000000000000000000000000000000000000000000000000000000600052602260045260246000fd5b60006002820490506001821680612b5e57607f821691505b60208210811415612b7257612b71612b17565b5b50919050565b7f4552433732313a20617070726f76616c20746f2063757272656e74206f776e6560008201527f7200000000000000000000000000000000000000000000000000000000000000602082015250565b6000612bd460218361241f565b9150612bdf82612b78565b604082019050919050565b60006020820190508181036000830152612c0381612bc7565b9050919050565b7f4552433732313a20617070726f76652063616c6c6572206973206e6f7420746f60008201527f6b656e206f776e6572206e6f7220617070726f76656420666f7220616c6c0000602082015250565b6000612c66603e8361241f565b9150612c7182612c0a565b604082019050919050565b60006020820190508181036000830152612c9581612c59565b9050919050565b600081905092915050565b6000612cb282612414565b612cbc8185612c9c565b9350612ccc818560208601612430565b80840191505092915050565b6000612ce48284612ca7565b915081905092915050565b7f4552433732313a2063616c6c6572206973206e6f7420746f6b656e206f776e6560008201527f72206e6f7220617070726f766564000000000000000000000000000000000000602082015250565b6000612d4b602e8361241f565b9150612d5682612cef565b604082019050919050565b60006020820190508181036000830152612d7a81612d3e565b9050919050565b7f4552433732313a20696e76616c696420746f6b656e2049440000000000000000600082015250565b6000612db760188361241f565b9150612dc282612d81565b602082019050919050565b60006020820190508181036000830152612de681612daa565b9050919050565b7f4552433732313a2061646472657373207a65726f206973206e6f74206120766160008201527f6c6964206f776e65720000000000000000000000000000000000000000000000602082015250565b6000612e4960298361241f565b9150612e5482612ded565b604082019050919050565b60006020820190508181036000830152612e7881612e3c565b9050919050565b7f4e6f7420646f6d61696e206f776e657200000000000000000000000000000000600082015250565b6000612eb560108361241f565b9150612ec082612e7f565b602082019050919050565b60006020820190508181036000830152612ee481612ea8565b9050919050565b6000612ef78285612ca7565b9150612f038284612ca7565b91508190509392505050565b6000612f1b8385612c9c565b9350612f288385846126b0565b82840190509392505050565b6000612f41828486612f0f565b91508190509392505050565b7f4e6f7420656e6f756768204d6174696320706169640000000000000000000000600082015250565b6000612f8360158361241f565b9150612f8e82612f4d565b602082019050919050565b60006020820190508181036000830152612fb281612f76565b9050919050565b7f4552433732313a207472616e736665722066726f6d20696e636f72726563742060008201527f6f776e6572000000000000000000000000000000000000000000000000000000602082015250565b600061301560258361241f565b915061302082612fb9565b604082019050919050565b6000602082019050818103600083015261304481613008565b9050919050565b7f4552433732313a207472616e7366657220746f20746865207a65726f2061646460008201527f7265737300000000000000000000000000000000000000000000000000000000602082015250565b60006130a760248361241f565b91506130b28261304b565b604082019050919050565b600060208201905081810360008301526130d68161309a565b9050919050565b7f4e487b7100000000000000000000000000000000000000000000000000000000600052601160045260246000fd5b6000613117826124cf565b9150613122836124cf565b925082821015613135576131346130dd565b5b828203905092915050565b600061314b826124cf565b9150613156836124cf565b9250827fffffffffffffffffffffffffffffffffffffffffffffffffffffffffffffffff0382111561318b5761318a6130dd565b5b828201905092915050565b7f4552433732313a20617070726f766520746f2063616c6c657200000000000000600082015250565b60006131cc60198361241f565b91506131d782613196565b602082019050919050565b600060208201905081810360008301526131fb816131bf565b9050919050565b7f4552433732313a207472616e7366657220746f206e6f6e20455243373231526560008201527f63656976657220696d706c656d656e7465720000000000000000000000000000602082015250565b600061325e60328361241f565b915061326982613202565b604082019050919050565b6000602082019050818103600083015261328d81613251565b9050919050565b7f2e00000000000000000000000000000000000000000000000000000000000000600082015250565b60006132ca600183612c9c565b91506132d582613294565b600182019050919050565b60008190508160005260206000209050919050565b6000815461330281612b46565b61330c8186612c9c565b9450600182166000811461332757600181146133385761336b565b60ff1983168652818601935061336b565b613341856132e0565b60005b8381101561336357815481890152600182019150602081019050613344565b838801955050505b50505092915050565b60006133808285612ca7565b915061338b826132bd565b915061339782846132f5565b91508190509392505050565b60006133af82866132f5565b91506133bb8285612ca7565b91506133c782846132f5565b9150819050949350505050565b7f7b226e616d65223a202200000000000000000000000000000000000000000000600082015250565b600061340a600a83612c9c565b9150613415826133d4565b600a82019050919050565b7f222c20226465736372697074696f6e223a20224120646f6d61696e206f6e207460008201527f686520506f6c79676f6e20506f6767657273206e616d6520736572766963652260208201527f2c2022696d616765223a2022646174613a696d6167652f7376672b786d6c3b6260408201527f61736536342c0000000000000000000000000000000000000000000000000000606082015250565b60006134c8606683612c9c565b91506134d382613420565b606682019050919050565b7f222c2261747472696275746573223a205b7b2274726169745f74797065223a2060008201527f225265636f7264222c202276616c7565223a2022000000000000000000000000602082015250565b600061353a603483612c9c565b9150613545826134de565b603482019050919050565b7f227d5d7d00000000000000000000000000000000000000000000000000000000600082015250565b6000613586600483612c9c565b915061359182613550565b600482019050919050565b60006135a7826133fd565b91506135b38286612ca7565b91506135be826134bb565b91506135ca8285612ca7565b91506135d58261352d565b91506135e18284612ca7565b91506135ec82613579565b9150819050949350505050565b7f646174613a6170706c69636174696f6e2f6a736f6e3b6261736536342c000000600082015250565b600061362f601d83612c9c565b915061363a826135f9565b601d82019050919050565b600061365082613622565b915061365c8284612ca7565b915081905092915050565b7f45524337323155524953746f726167653a2055524920736574206f66206e6f6e60008201527f6578697374656e7420746f6b656e000000000000000000000000000000000000602082015250565b60006136c3602e8361241f565b91506136ce82613667565b604082019050919050565b600060208201905081810360008301526136f2816136b6565b9050919050565b7f222c20226465736372697074696f6e223a20224120646f6d61696e206f6e207460008201527f68652053686f7763726976656c206e616d652073657276696365222c2022696d60208201527f616765223a2022646174613a696d6167652f7376672b786d6c3b62617365363460408201527f2c00000000000000000000000000000000000000000000000000000000000000606082015250565b60006137a1606183612c9c565b91506137ac826136f9565b606182019050919050565b7f222c2261747472696275746573223a205b7b2274726169745f74797065223a2060008201527f225265636f7264222c202276616c7565223a20224e6f207265636f726420736560208201527f74227d5d7d000000000000000000000000000000000000000000000000000000604082015250565b6000613839604583612c9c565b9150613844826137b7565b604582019050919050565b600061385a826133fd565b91506138668285612ca7565b915061387182613794565b915061387d8284612ca7565b91506138888261382c565b91508190509392505050565b600081519050919050565b600082825260208201905092915050565b60006138bb82613894565b6138c5818561389f565b93506138d5818560208601612430565b6138de81612463565b840191505092915050565b60006080820190506138fe6000830187612564565b61390b6020830186612564565b6139186040830185612778565b818103606083015261392a81846138b0565b905095945050505050565b60008151905061394481612385565b92915050565b6000602082840312156139605761395f61234f565b5b600061396e84828501613935565b91505092915050565b7f4e487b7100000000000000000000000000000000000000000000000000000000600052601260045260246000fd5b60006139b1826124cf565b91506139bc836124cf565b9250826139cc576139cb613977565b5b828204905092915050565b60006139e2826124cf565b91506139ed836124cf565b9250817fffffffffffffffffffffffffffffffffffffffffffffffffffffffffffffffff0483118215151615613a2657613a256130dd565b5b828202905092915050565b6000613a3c826124cf565b91507fffffffffffffffffffffffffffffffffffffffffffffffffffffffffffffffff821415613a6f57613a6e6130dd565b5b600182019050919050565b6000613a85826124cf565b9150613a90836124cf565b925082613aa057613a9f613977565b5b828206905092915050565b7f4e487b7100000000000000000000000000000000000000000000000000000000600052603260045260246000fd5b7f4552433732313a206d696e7420746f20746865207a65726f2061646472657373600082015250565b6000613b1060208361241f565b9150613b1b82613ada565b602082019050919050565b60006020820190508181036000830152613b3f81613b03565b9050919050565b7f4552433732313a20746f6b656e20616c7265616479206d696e74656400000000600082015250565b6000613b7c601c8361241f565b9150613b8782613b46565b602082019050919050565b60006020820190508181036000830152613bab81613b6f565b905091905056fe4142434445464748494a4b4c4d4e4f505152535455565758595a6162636465666768696a6b6c6d6e6f707172737475767778797a303132333435363738392b2fa26469706673582212206fec2941fa50456496e7a07aab33b6702c22f991d56c35d94aa44e583a3da2a064736f6c634300080a00333c73766720786d6c6e733d22687474703a2f2f7777772e77332e6f72672f323030302f737667222077696474683d2233353022206865696768743d22333230222066696c6c3d226e6f6e65223e3c646566733e3c6c696e6561724772616469656e742069643d2261222078313d222e3332222079313d222e3033222078323d222e3638222079323d222e3937223e3c73746f70206f66667365743d223025222073746f702d636f6c6f723d2223333138326365222f3e3c73746f70206f66667365743d2231342e323925222073746f702d636f6c6f723d2223333637666561222f3e3c73746f70206f66667365743d2232382e353725222073746f702d636f6c6f723d2223363137616566222f3e3c73746f70206f66667365743d2234322e383625222073746f702d636f6c6f723d2223376637356566222f3e3c73746f70206f66667365743d2235372e313425222073746f702d636f6c6f723d2223393637306566222f3e3c73746f70206f66667365743d2237312e343325222073746f702d636f6c6f723d2223613936626565222f3e3c73746f70206f66667365743d2231303025222073746f702d636f6c6f723d2223636235656565222f3e3c2f6c696e6561724772616469656e743e3c2f646566733e3c726563742066696c6c3d2275726c2823612922206865696768743d2231303025222077696474683d2231303025222f3e3c646566733e3c66696c7465722069643d22622220636f6c6f722d696e746572706f6c6174696f6e2d66696c746572733d2273524742222066696c746572556e6974733d227573657253706163654f6e55736522206865696768743d22333230222077696474683d22333530223e3c666544726f70536861646f772064783d2230222064793d22312220737464446576696174696f6e3d22322220666c6f6f642d6f7061636974793d222e323235222077696474683d223230302522206865696768743d2232303025222f3e3c2f66696c7465723e3c2f646566733e3c7061746820643d224d37322e3836332034322e39343961342e33383220342e3338322030203020302d342e33393420306c2d31302e30383120362e3033322d362e383520332e3933342d31302e30383120362e30333261342e33383220342e3338322030203020312d342e33393420306c2d382e3031332d342e37323161342e353220342e35322030203020312d312e3538392d312e36313620342e353420342e35342030203020312d2e3630382d322e313837762d392e333161342e323720342e3237203020302031202e3537322d322e32303820342e323520342e323520302030203120312e3632352d312e3539356c372e3838342d342e353961342e33383220342e33383220302030203120342e33393420306c372e38383420342e353961342e353220342e353220302030203120312e35383920312e36313620342e353420342e3534203020302031202e36303820322e31383776362e3033326c362e38352d342e303635762d362e30333261342e323720342e32372030203020302d2e3537322d322e32303820342e323520342e32352030203020302d312e3632352d312e3539354c34312e3435362032342e353961342e33383220342e3338322030203020302d342e33393420306c2d31342e38363420382e36353561342e323520342e32352030203020302d312e36323520312e35393520342e32373320342e3237332030203020302d2e35373220322e3230387631372e34343161342e323720342e3237203020302030202e35373220322e32303820342e323520342e323520302030203020312e36323520312e3539356c31342e38363420382e36353561342e33383220342e33383220302030203020342e33393420306c31302e3038312d352e39303120362e38352d342e3036352031302e3038312d352e39303161342e33383220342e33383220302030203120342e33393420306c372e38383420342e353961342e353220342e353220302030203120312e35383920312e36313620342e353420342e3534203020302031202e36303820322e31383776392e33313161342e323720342e32372030203020312d2e35373220322e32303820342e323520342e32352030203020312d312e36323520312e3539356c2d372e38383420342e37323161342e33383220342e3338322030203020312d342e33393420306c2d372e3838342d342e353961342e353220342e35322030203020312d312e3538392d312e36313620342e353320342e35332030203020312d2e3630382d322e313837762d362e3033326c2d362e383520342e30363576362e30333261342e323720342e3237203020302030202e35373220322e32303820342e323520342e323520302030203020312e36323520312e3539356c31342e38363420382e36353561342e33383220342e33383220302030203020342e33393420306c31342e3836342d382e36353561342e35343520342e35343520302030203020322e3139382d332e3830335635352e35333861342e323720342e32372030203020302d2e3537322d322e32303820342e323520342e32352030203020302d312e3632352d312e3539356c2d31342e3939332d382e3738367a222066696c6c3d2223666666222f3e3c7465787420783d2233302220793d223237302220666f6e742d73697a653d223232222066696c6c3d2223666666222066696c7465723d2275726c282362292220666f6e742d66616d696c793d22506c7573204a616b617274612053616e732c44656a6156752053616e732c4e6f746f20436f6c6f7220456d6f6a692c4170706c6520436f6c6f7220456d6f6a692c73616e732d73657269662220666f6e742d7765696768743d22626f6c64223e",
  "linkReferences": {},
  "deployedLinkReferences": {}
}